{
  "_format": "hh-sol-artifact-1",
  "contractName": "AllianceGamesProof",
  "sourceName": "contracts/AllianceGamesProof.sol",
  "abi": [
    {
      "inputs": [],
      "name": "AccessControlBadConfirmation",
      "type": "error"
    },
    {
      "inputs": [
        {
          "internalType": "address",
          "name": "account",
          "type": "address"
        },
        {
          "internalType": "bytes32",
          "name": "neededRole",
          "type": "bytes32"
        }
      ],
      "name": "AccessControlUnauthorizedAccount",
      "type": "error"
    },
    {
      "inputs": [],
      "name": "EnforcedPause",
      "type": "error"
    },
    {
      "inputs": [],
      "name": "ExpectedPause",
      "type": "error"
    },
    {
      "inputs": [],
      "name": "InvalidInitialization",
      "type": "error"
    },
    {
      "inputs": [],
      "name": "NotInitializing",
      "type": "error"
    },
    {
      "inputs": [],
      "name": "ReentrancyGuardReentrantCall",
      "type": "error"
    },
    {
      "anonymous": false,
      "inputs": [
        {
          "indexed": true,
          "internalType": "contract IValidator",
          "name": "_validator",
          "type": "address"
        }
      ],
      "name": "Initialize",
      "type": "event"
    },
    {
      "anonymous": false,
      "inputs": [
        {
          "indexed": false,
          "internalType": "uint64",
          "name": "version",
          "type": "uint64"
        }
      ],
      "name": "Initialized",
      "type": "event"
    },
    {
      "anonymous": false,
      "inputs": [
        {
          "indexed": false,
          "internalType": "address",
          "name": "account",
          "type": "address"
        }
      ],
      "name": "Paused",
      "type": "event"
    },
    {
      "anonymous": false,
      "inputs": [
        {
          "indexed": true,
          "internalType": "bytes32",
          "name": "role",
          "type": "bytes32"
        },
        {
          "indexed": true,
          "internalType": "bytes32",
          "name": "previousAdminRole",
          "type": "bytes32"
        },
        {
          "indexed": true,
          "internalType": "bytes32",
          "name": "newAdminRole",
          "type": "bytes32"
        }
      ],
      "name": "RoleAdminChanged",
      "type": "event"
    },
    {
      "anonymous": false,
      "inputs": [
        {
          "indexed": true,
          "internalType": "bytes32",
          "name": "role",
          "type": "bytes32"
        },
        {
          "indexed": true,
          "internalType": "address",
          "name": "account",
          "type": "address"
        },
        {
          "indexed": true,
          "internalType": "address",
          "name": "sender",
          "type": "address"
        }
      ],
      "name": "RoleGranted",
      "type": "event"
    },
    {
      "anonymous": false,
      "inputs": [
        {
          "indexed": true,
          "internalType": "bytes32",
          "name": "role",
          "type": "bytes32"
        },
        {
          "indexed": true,
          "internalType": "address",
          "name": "account",
          "type": "address"
        },
        {
          "indexed": true,
          "internalType": "address",
          "name": "sender",
          "type": "address"
        }
      ],
      "name": "RoleRevoked",
      "type": "event"
    },
    {
      "anonymous": false,
      "inputs": [
        {
          "indexed": false,
          "internalType": "bytes32",
          "name": "rid",
          "type": "bytes32"
        }
      ],
      "name": "SetBlockchainRid",
      "type": "event"
    },
    {
      "anonymous": false,
      "inputs": [
        {
          "indexed": false,
          "internalType": "address",
          "name": "account",
          "type": "address"
        }
      ],
      "name": "Unpaused",
      "type": "event"
    },
    {
      "inputs": [],
      "name": "DEFAULT_ADMIN_ROLE",
      "outputs": [
        {
          "internalType": "bytes32",
          "name": "",
          "type": "bytes32"
        }
      ],
      "stateMutability": "view",
      "type": "function"
    },
    {
      "inputs": [],
      "name": "PAUSER_ROLE",
      "outputs": [
        {
          "internalType": "bytes32",
          "name": "",
          "type": "bytes32"
        }
      ],
      "stateMutability": "view",
      "type": "function"
    },
    {
      "inputs": [
        {
          "internalType": "bytes32",
          "name": "role",
          "type": "bytes32"
        }
      ],
      "name": "getRoleAdmin",
      "outputs": [
        {
          "internalType": "bytes32",
          "name": "",
          "type": "bytes32"
        }
      ],
      "stateMutability": "view",
      "type": "function"
    },
    {
      "inputs": [
        {
          "internalType": "bytes32",
          "name": "role",
          "type": "bytes32"
        },
        {
          "internalType": "address",
          "name": "account",
          "type": "address"
        }
      ],
      "name": "grantRole",
      "outputs": [],
      "stateMutability": "nonpayable",
      "type": "function"
    },
    {
      "inputs": [
        {
          "internalType": "bytes32",
          "name": "role",
          "type": "bytes32"
        },
        {
          "internalType": "address",
          "name": "account",
          "type": "address"
        }
      ],
      "name": "hasRole",
      "outputs": [
        {
          "internalType": "bool",
          "name": "",
          "type": "bool"
        }
      ],
      "stateMutability": "view",
      "type": "function"
    },
    {
      "inputs": [
        {
          "internalType": "contract IValidator",
          "name": "_validator",
          "type": "address"
        },
        {
          "internalType": "bytes32",
          "name": "rid",
          "type": "bytes32"
        },
        {
          "internalType": "address",
          "name": "_defaultAdmin",
          "type": "address"
        }
      ],
      "name": "initialize",
      "outputs": [],
      "stateMutability": "nonpayable",
      "type": "function"
    },
    {
      "inputs": [
        {
          "components": [
            {
              "internalType": "bytes",
              "name": "eventData",
              "type": "bytes"
            },
            {
              "components": [
                {
                  "internalType": "bytes32",
                  "name": "leaf",
                  "type": "bytes32"
                },
                {
                  "internalType": "uint256",
                  "name": "position",
                  "type": "uint256"
                },
                {
                  "internalType": "bytes32[]",
                  "name": "merkleProofs",
                  "type": "bytes32[]"
                }
              ],
              "internalType": "struct Data.Proof",
              "name": "eventProof",
              "type": "tuple"
            },
            {
              "internalType": "bytes",
              "name": "blockHeader",
              "type": "bytes"
            },
            {
              "internalType": "bytes[]",
              "name": "signatures",
              "type": "bytes[]"
            },
            {
              "internalType": "address[]",
              "name": "signers",
              "type": "address[]"
            },
            {
              "components": [
                {
                  "internalType": "bytes",
                  "name": "leaf",
                  "type": "bytes"
                },
                {
                  "internalType": "bytes32",
                  "name": "hashedLeaf",
                  "type": "bytes32"
                },
                {
                  "internalType": "uint256",
                  "name": "position",
                  "type": "uint256"
                },
                {
                  "internalType": "bytes32",
                  "name": "extraRoot",
                  "type": "bytes32"
                },
                {
                  "internalType": "bytes32[]",
                  "name": "extraMerkleProofs",
                  "type": "bytes32[]"
                }
              ],
              "internalType": "struct Data.ExtraProofData",
              "name": "extraProof",
              "type": "tuple"
            },
            {
              "internalType": "bytes",
              "name": "encodedData",
              "type": "bytes"
            }
          ],
          "internalType": "struct AllianceGamesTypes.ProofData",
          "name": "proof",
          "type": "tuple"
        }
      ],
      "name": "isProofValid",
      "outputs": [
        {
          "internalType": "bool",
          "name": "",
          "type": "bool"
        }
      ],
      "stateMutability": "view",
      "type": "function"
    },
    {
      "inputs": [],
      "name": "pause",
      "outputs": [],
      "stateMutability": "nonpayable",
      "type": "function"
    },
    {
      "inputs": [],
      "name": "paused",
      "outputs": [
        {
          "internalType": "bool",
          "name": "",
          "type": "bool"
        }
      ],
      "stateMutability": "view",
      "type": "function"
    },
    {
      "inputs": [
        {
          "internalType": "bytes32",
          "name": "role",
          "type": "bytes32"
        },
        {
          "internalType": "address",
          "name": "callerConfirmation",
          "type": "address"
        }
      ],
      "name": "renounceRole",
      "outputs": [],
      "stateMutability": "nonpayable",
      "type": "function"
    },
    {
      "inputs": [
        {
          "internalType": "bytes32",
          "name": "role",
          "type": "bytes32"
        },
        {
          "internalType": "address",
          "name": "account",
          "type": "address"
        }
      ],
      "name": "revokeRole",
      "outputs": [],
      "stateMutability": "nonpayable",
      "type": "function"
    },
    {
      "inputs": [
        {
          "internalType": "bytes32",
          "name": "rid",
          "type": "bytes32"
        }
      ],
      "name": "setBlockchainRid",
      "outputs": [],
      "stateMutability": "nonpayable",
      "type": "function"
    },
    {
      "inputs": [
        {
          "internalType": "bytes4",
          "name": "interfaceId",
          "type": "bytes4"
        }
      ],
      "name": "supportsInterface",
      "outputs": [
        {
          "internalType": "bool",
          "name": "",
          "type": "bool"
        }
      ],
      "stateMutability": "view",
      "type": "function"
    },
    {
      "inputs": [],
      "name": "unpause",
      "outputs": [],
      "stateMutability": "nonpayable",
      "type": "function"
    },
    {
      "inputs": [],
      "name": "validator",
      "outputs": [
        {
          "internalType": "contract IValidator",
          "name": "",
          "type": "address"
        }
      ],
      "stateMutability": "view",
      "type": "function"
    }
  ],
  "bytecode": "0x6080604052348015600f57600080fd5b506136988061001f6000396000f3fe608060405234801561001057600080fd5b50600436106100f55760003560e01c80635c975abb11610097578063a217fddf11610066578063a217fddf1461025e578063d26b3e6e1461027c578063d547741f14610298578063e63ab1e9146102b4576100f5565b80635c975abb146101ea578063633e0160146102085780638456cb591461022457806391d148541461022e576100f5565b806336568abe116100d357806336568abe146101765780633a5381b5146101925780633f4ba83a146101b057806349d80501146101ba576100f5565b806301ffc9a7146100fa578063248a9ca31461012a5780632f2ff15d1461015a575b600080fd5b610114600480360381019061010f919061206f565b6102d2565b60405161012191906120b7565b60405180910390f35b610144600480360381019061013f9190612108565b61034c565b6040516101519190612144565b60405180910390f35b610174600480360381019061016f91906121bd565b61037a565b005b610190600480360381019061018b91906121bd565b61039c565b005b61019a610417565b6040516101a7919061225c565b60405180910390f35b6101b861043b565b005b6101d460048036038101906101cf919061229b565b610470565b6040516101e191906120b7565b60405180910390f35b6101f2610820565b6040516101ff91906120b7565b60405180910390f35b610222600480360381019061021d9190612108565b610845565b005b61022c6108d9565b005b610248600480360381019061024391906121bd565b61090e565b60405161025591906120b7565b60405180910390f35b610266610987565b6040516102739190612144565b60405180910390f35b61029660048036038101906102919190612322565b61098e565b005b6102b260048036038101906102ad91906121bd565b610c60565b005b6102bc610c82565b6040516102c99190612144565b60405180910390f35b60007f7965db0b000000000000000000000000000000000000000000000000000000007bffffffffffffffffffffffffffffffffffffffffffffffffffffffff1916827bffffffffffffffffffffffffffffffffffffffffffffffffffffffff19161480610345575061034482610ca6565b5b9050919050565b600080610357610d10565b905080600001600084815260200190815260200160002060010154915050919050565b6103838261034c565b61038c81610d38565b6103968383610d4c565b50505050565b6103a4610e4d565b73ffffffffffffffffffffffffffffffffffffffff168173ffffffffffffffffffffffffffffffffffffffff1614610408576040517f6697b23200000000000000000000000000000000000000000000000000000000815260040160405180910390fd5b6104128282610e55565b505050565b60008054906101000a900473ffffffffffffffffffffffffffffffffffffffff1681565b7f65d7a28e3265b37a6474929f336521b332c1681b933f6cb9f3376673440d862a61046581610d38565b61046d610f57565b50565b60008060001b60015403610487576000905061081b565b818060a001906104979190612384565b60200135610505838060a001906104ae9190612384565b80600001906104bd91906123ac565b8080601f016020809104026020016040519081016040528093929190818152602001838380828437600081840152601f19601f82011690508083019250505050505050610fc9565b14610513576000905061081b565b600061058c60015484806040019061052b91906123ac565b8080601f016020809104026020016040519081016040528093929190818152602001838380828437600081840152601f19601f82011690508083019250505050505050858060a0019061057e9190612384565b61058790612721565b611094565b91505060006105fd848060a001906105a49190612384565b80600001906105b391906123ac565b8080601f016020809104026020016040519081016040528093929190818152602001838380828437600081840152601f19601f8201169050808301925050505050505060006111b1565b905060008054906101000a900473ffffffffffffffffffffffffffffffffffffffff1673ffffffffffffffffffffffffffffffffffffffff16638e1dbab88386806060019061064c9190612734565b88806080019061065c9190612797565b6040518663ffffffff1660e01b815260040161067c959493929190612a21565b602060405180830381865afa158015610699573d6000803e3d6000fd5b505050506040513d601f19601f820116820180604052508101906106bd9190612a96565b6106cc5760009250505061081b565b61075c8480602001906106df9190612ac3565b80604001906106ee9190612aeb565b80806020026020016040519081016040528093929190818152602001838360200280828437600081840152601f19601f8201169050808301925050505050505085806020019061073e9190612ac3565b600001358680602001906107529190612ac3565b602001358461123c565b61076b5760009250505061081b565b600084806000019061077d91906123ac565b81019061078a9190612b9e565b905084806020019061079c9190612ac3565b600001358580600001906107b091906123ac565b6040516107be929190612bfb565b6040518091039020146107d7576000935050505061081b565b8060200151858060c001906107ec91906123ac565b6040516107fa929190612bfb565b604051809103902014610813576000935050505061081b565b600193505050505b919050565b60008061082b6112f6565b90508060000160009054906101000a900460ff1691505090565b6000801b61085281610d38565b6000801b8203610897576040517f08c379a000000000000000000000000000000000000000000000000000000000815260040161088e90612c97565b60405180910390fd5b816001819055507fc4597ce7b4ac4379ee010b7c4818ac208506ea6f6170d4ed5f6421246ca5ff80826040516108cd9190612144565b60405180910390a15050565b7f65d7a28e3265b37a6474929f336521b332c1681b933f6cb9f3376673440d862a61090381610d38565b61090b61131e565b50565b600080610919610d10565b905080600001600085815260200190815260200160002060000160008473ffffffffffffffffffffffffffffffffffffffff1673ffffffffffffffffffffffffffffffffffffffff16815260200190815260200160002060009054906101000a900460ff1691505092915050565b6000801b81565b6000610998611390565b905060008160000160089054906101000a900460ff1615905060008260000160009054906101000a900467ffffffffffffffff1690506000808267ffffffffffffffff161480156109e65750825b9050600060018367ffffffffffffffff16148015610a1b575060003073ffffffffffffffffffffffffffffffffffffffff163b145b905081158015610a29575080155b15610a60576040517ff92ee8a900000000000000000000000000000000000000000000000000000000815260040160405180910390fd5b60018560000160006101000a81548167ffffffffffffffff021916908367ffffffffffffffff1602179055508315610ab05760018560000160086101000a81548160ff0219169083151502179055505b600073ffffffffffffffffffffffffffffffffffffffff168873ffffffffffffffffffffffffffffffffffffffff1603610b1f576040517f08c379a0000000000000000000000000000000000000000000000000000000008152600401610b1690612d29565b60405180910390fd5b610b276113b8565b610b2f6113c2565b610b376113d4565b610b446000801b87610d4c565b50610b6f7f65d7a28e3265b37a6474929f336521b332c1681b933f6cb9f3376673440d862a87610d4c565b50876000806101000a81548173ffffffffffffffffffffffffffffffffffffffff021916908373ffffffffffffffffffffffffffffffffffffffff160217905550866001819055508773ffffffffffffffffffffffffffffffffffffffff167f36b1453565f45af7b509b59d5e2eac8f1948ea9e3e193db6663b4101afb6382c60405160405180910390a28315610c565760008560000160086101000a81548160ff0219169083151502179055507fc7f505b2f371ae2175ee4913f4499e1f2633a7b5936321eed1cdaeb6115181d26001604051610c4d9190612d98565b60405180910390a15b5050505050505050565b610c698261034c565b610c7281610d38565b610c7c8383610e55565b50505050565b7f65d7a28e3265b37a6474929f336521b332c1681b933f6cb9f3376673440d862a81565b60007f01ffc9a7000000000000000000000000000000000000000000000000000000007bffffffffffffffffffffffffffffffffffffffffffffffffffffffff1916827bffffffffffffffffffffffffffffffffffffffffffffffffffffffff1916149050919050565b60007f02dd7bc7dec4dceedda775e58dd541e08a116c6c53815c0bd028192f7b626800905090565b610d4981610d44610e4d565b6113e6565b50565b600080610d57610d10565b9050610d63848461090e565b610e4157600181600001600086815260200190815260200160002060000160008573ffffffffffffffffffffffffffffffffffffffff1673ffffffffffffffffffffffffffffffffffffffff16815260200190815260200160002060006101000a81548160ff021916908315150217905550610ddd610e4d565b73ffffffffffffffffffffffffffffffffffffffff168373ffffffffffffffffffffffffffffffffffffffff16857f2f8788117e7eff1d82e926ec794901d17c78024a50270940304540a733656f0d60405160405180910390a46001915050610e47565b60009150505b92915050565b600033905090565b600080610e60610d10565b9050610e6c848461090e565b15610f4b57600081600001600086815260200190815260200160002060000160008573ffffffffffffffffffffffffffffffffffffffff1673ffffffffffffffffffffffffffffffffffffffff16815260200190815260200160002060006101000a81548160ff021916908315150217905550610ee7610e4d565b73ffffffffffffffffffffffffffffffffffffffff168373ffffffffffffffffffffffffffffffffffffffff16857ff6391f5c32d9c69d2a47ea670b442974b53935d1edc7fd64eb21e047a839171b60405160405180910390a46001915050610f51565b60009150505b92915050565b610f5f611437565b6000610f696112f6565b905060008160000160006101000a81548160ff0219169083151502179055507f5db9ee0a495bf2e6ff9c91a7834c1ba4fdd244a5e8aa4e537bd38aeae4b073aa610fb1610e4d565b604051610fbe9190612dc2565b60405180910390a150565b6000604082511461100f576040517f08c379a000000000000000000000000000000000000000000000000000000000815260040161100690612e4f565b60405180910390fd5b6002600160a16042600460408760405160200161103196959493929190612f18565b60405160208183030381529060405260405161104d9190612f84565b602060405180830381855afa15801561106a573d6000803e3d6000fd5b5050506040513d601f19601f8201168201806040525081019061108d9190612fb0565b9050919050565b60008060006110a285611477565b9050806000015186146110ea576040517f08c379a00000000000000000000000000000000000000000000000000000000081526004016110e19061304f565b60405180910390fd5b8060e00151846060015114611134576040517f08c379a000000000000000000000000000000000000000000000000000000000815260040161112b906130e1565b60405180910390fd5b61115b84602001518560400151866060015187608001516117f8909392919063ffffffff16565b61119a576040517f08c379a000000000000000000000000000000000000000000000000000000000815260040161119190613173565b60405180910390fd5b8060a0015181602001519250925050935093915050565b60008060005b6020811015611231576008816111cd91906131c2565b60ff60f81b8683876111df9190613204565b815181106111f0576111ef613238565b5b602001015160f81c60f81b167effffffffffffffffffffffffffffffffffffffffffffffffffffffffffffff1916901c8217915080806001019150506111b7565b508091505092915050565b60008060001b841480611254575084516001901b8310155b1561126257600090506112ee565b600084905060005b86518110156112e6576000816001901b86169050600081036112b1576112aa8389848151811061129d5761129c613238565b5b6020026020010151611ac3565b92506112d8565b6112d58883815181106112c7576112c6613238565b5b602002602001015184611ac3565b92505b50808060010191505061126a565b508281149150505b949350505050565b60007fcd5ed15c6e187e77e9aee88184c21f4f2182ab5827cb3b7e07fbedcd63f03300905090565b611326611b8b565b60006113306112f6565b905060018160000160006101000a81548160ff0219169083151502179055507f62e78cea01bee320cd4e420270b5ea74000d11b0c9f74754ebdbfc544b05a258611378610e4d565b6040516113859190612dc2565b60405180910390a150565b60007ff0c57e16840df040f15088dc2f81fe391c3923bec73e23a9662efc9c229c6a00905090565b6113c0611bcc565b565b6113ca611bcc565b6113d2611c0c565b565b6113dc611bcc565b6113e4611c40565b565b6113f0828261090e565b6114335780826040517fe2517d3f00000000000000000000000000000000000000000000000000000000815260040161142a929190613267565b60405180910390fd5b5050565b61143f610820565b611475576040517f8dfc202b00000000000000000000000000000000000000000000000000000000815260040160405180910390fd5b565b61147f611fac565b600082806020019051810190611495919061336f565b90506000600260006114aa8460000151611c61565b6114b78560400151611c61565b6040516020016114c9939291906133be565b6040516020818303038152906040526040516114e59190612f84565b602060405180830381855afa158015611502573d6000803e3d6000fd5b5050506040513d601f19601f820116820180604052508101906115259190612fb0565b9050600060026000846060015161153f8660800151611ce8565b604051602001611551939291906133be565b60405160208183030381529060405260405161156d9190612f84565b602060405180830381855afa15801561158a573d6000803e3d6000fd5b5050506040513d601f19601f820116820180604052508101906115ad9190612fb0565b90506000600260006115c28660a00151611ce8565b8660c001516040516020016115d9939291906133be565b6040516020818303038152906040526040516115f59190612f84565b602060405180830381855afa158015611612573d6000803e3d6000fd5b5050506040513d601f19601f820116820180604052508101906116359190612fb0565b90506000600260008585604051602001611651939291906133be565b60405160208183030381529060405260405161166d9190612f84565b602060405180830381855afa15801561168a573d6000803e3d6000fd5b5050506040513d601f19601f820116820180604052508101906116ad9190612fb0565b9050600060026000848860e001516040516020016116cd939291906133be565b6040516020818303038152906040526040516116e99190612f84565b602060405180830381855afa158015611706573d6000803e3d6000fd5b5050506040513d601f19601f820116820180604052508101906117299190612fb0565b90506000600260078484604051602001611745939291906133be565b6040516020818303038152906040526040516117619190612f84565b602060405180830381855afa15801561177e573d6000803e3d6000fd5b5050506040513d601f19601f820116820180604052508101906117a19190612fb0565b9050866020015181146117e9576040517f08c379a00000000000000000000000000000000000000000000000000000000081526004016117e090613447565b60405180910390fd5b86975050505050505050919050565b600084516001901b831061180f5760009050611abb565b60008490506000600187516118249190613467565b905060005b81811015611978576000816001901b87169050600081036118d95760026000858b858151811061185c5761185b613238565b5b6020026020010151604051602001611876939291906133be565b6040516020818303038152906040526040516118929190612f84565b602060405180830381855afa1580156118af573d6000803e3d6000fd5b5050506040513d601f19601f820116820180604052508101906118d29190612fb0565b935061196a565b600260008a84815181106118f0576118ef613238565b5b60200260200101518660405160200161190b939291906133be565b6040516020818303038152906040526040516119279190612f84565b602060405180830381855afa158015611944573d6000803e3d6000fd5b5050506040513d601f19601f820116820180604052508101906119679190612fb0565b93505b508080600101915050611829565b506000816001901b8616905060008103611a215760026008848a85815181106119a4576119a3613238565b5b60200260200101516040516020016119be939291906133be565b6040516020818303038152906040526040516119da9190612f84565b602060405180830381855afa1580156119f7573d6000803e3d6000fd5b5050506040513d601f19601f82011682018060405250810190611a1a9190612fb0565b9250611ab2565b60026008898481518110611a3857611a37613238565b5b602002602001015185604051602001611a53939291906133be565b604051602081830303815290604052604051611a6f9190612f84565b602060405180830381855afa158015611a8c573d6000803e3d6000fd5b5050506040513d601f19601f82011682018060405250810190611aaf9190612fb0565b92505b84831493505050505b949350505050565b60008060001b83148015611ad957506000801b82145b15611ae9576000801b9050611b85565b6000801b8303611b215781604051602001611b04919061349b565b604051602081830303815290604052805190602001209050611b85565b6000801b8203611b595782604051602001611b3c919061349b565b604051602081830303815290604052805190602001209050611b85565b8282604051602001611b6c9291906134b6565b6040516020818303038152906040528051906020012090505b92915050565b611b93610820565b15611bca576040517fd93c066500000000000000000000000000000000000000000000000000000000815260040160405180910390fd5b565b611bd4611f64565b611c0a576040517fd7e6bcf800000000000000000000000000000000000000000000000000000000815260040160405180910390fd5b565b611c14611bcc565b6000611c1e6112f6565b905060008160000160006101000a81548160ff02191690831515021790555050565b611c48611bcc565b6000611c52611f84565b90506001816000018190555050565b60006002600160a160226004602087604051602001611c85969594939291906134e2565b604051602081830303815290604052604051611ca19190612f84565b602060405180830381855afa158015611cbe573d6000803e3d6000fd5b5050506040513d601f19601f82011682018060405250810190611ce19190612fb0565b9050919050565b600080600190506000600884901c90505b6000811115611d1d57600182611d0f9190613552565b9150600881901c9050611cf9565b60008260ff1667ffffffffffffffff811115611d3c57611d3b612425565b5b6040519080825280601f01601f191660200182016040528015611d6e5781602001600182028036833780820191505090505b5090508491506000600190505b8360ff168160ff1611611dff57600060ff841690508060f81b838387611da19190613587565b60ff1681518110611db557611db4613238565b5b60200101907effffffffffffffffffffffffffffffffffffffffffffffffffffffffffffff1916908160001a905350600884901c9350508080611df7906135bc565b915050611d7b565b506000608082600081518110611e1857611e17613238565b5b602001015160f81c60f81b60f81c1660ff161115611ed1576002600160a3600386611e439190613552565b6002600188611e529190613552565b600087604051602001611e6b97969594939291906135e5565b604051602081830303815290604052604051611e879190612f84565b602060405180830381855afa158015611ea4573d6000803e3d6000fd5b5050506040513d601f19601f82011682018060405250810190611ec79190612fb0565b9350505050611f5f565b6002600160a3600286611ee49190613552565b60028786604051602001611efd96959493929190612f18565b604051602081830303815290604052604051611f199190612f84565b602060405180830381855afa158015611f36573d6000803e3d6000fd5b5050506040513d601f19601f82011682018060405250810190611f599190612fb0565b93505050505b919050565b6000611f6e611390565b60000160089054906101000a900460ff16905090565b60007f9b779b17422d0df92223018b32b4d1fa46e071723d6817e2486d003becc55f00905090565b60405180610100016040528060008019168152602001600080191681526020016000801916815260200160008019168152602001600081526020016000815260200160008019168152602001600080191681525090565b6000604051905090565b600080fd5b600080fd5b60007fffffffff0000000000000000000000000000000000000000000000000000000082169050919050565b61204c81612017565b811461205757600080fd5b50565b60008135905061206981612043565b92915050565b6000602082840312156120855761208461200d565b5b60006120938482850161205a565b91505092915050565b60008115159050919050565b6120b18161209c565b82525050565b60006020820190506120cc60008301846120a8565b92915050565b6000819050919050565b6120e5816120d2565b81146120f057600080fd5b50565b600081359050612102816120dc565b92915050565b60006020828403121561211e5761211d61200d565b5b600061212c848285016120f3565b91505092915050565b61213e816120d2565b82525050565b60006020820190506121596000830184612135565b92915050565b600073ffffffffffffffffffffffffffffffffffffffff82169050919050565b600061218a8261215f565b9050919050565b61219a8161217f565b81146121a557600080fd5b50565b6000813590506121b781612191565b92915050565b600080604083850312156121d4576121d361200d565b5b60006121e2858286016120f3565b92505060206121f3858286016121a8565b9150509250929050565b6000819050919050565b600061222261221d6122188461215f565b6121fd565b61215f565b9050919050565b600061223482612207565b9050919050565b600061224682612229565b9050919050565b6122568161223b565b82525050565b6000602082019050612271600083018461224d565b92915050565b600080fd5b600060e0828403121561229257612291612277565b5b81905092915050565b6000602082840312156122b1576122b061200d565b5b600082013567ffffffffffffffff8111156122cf576122ce612012565b5b6122db8482850161227c565b91505092915050565b60006122ef8261217f565b9050919050565b6122ff816122e4565b811461230a57600080fd5b50565b60008135905061231c816122f6565b92915050565b60008060006060848603121561233b5761233a61200d565b5b60006123498682870161230d565b935050602061235a868287016120f3565b925050604061236b868287016121a8565b9150509250925092565b600080fd5b600080fd5b600080fd5b60008235600160a0038336030381126123a05761239f612375565b5b80830191505092915050565b600080833560016020038436030381126123c9576123c8612375565b5b80840192508235915067ffffffffffffffff8211156123eb576123ea61237a565b5b6020830192506001820236038313156124075761240661237f565b5b509250929050565b600080fd5b6000601f19601f8301169050919050565b7f4e487b7100000000000000000000000000000000000000000000000000000000600052604160045260246000fd5b61245d82612414565b810181811067ffffffffffffffff8211171561247c5761247b612425565b5b80604052505050565b600061248f612003565b905061249b8282612454565b919050565b600080fd5b600080fd5b600080fd5b600067ffffffffffffffff8211156124ca576124c9612425565b5b6124d382612414565b9050602081019050919050565b82818337600083830152505050565b60006125026124fd846124af565b612485565b90508281526020810184848401111561251e5761251d6124aa565b5b6125298482856124e0565b509392505050565b600082601f830112612546576125456124a5565b5b81356125568482602086016124ef565b91505092915050565b6000819050919050565b6125728161255f565b811461257d57600080fd5b50565b60008135905061258f81612569565b92915050565b600067ffffffffffffffff8211156125b0576125af612425565b5b602082029050602081019050919050565b600080fd5b60006125d96125d484612595565b612485565b905080838252602082019050602084028301858111156125fc576125fb6125c1565b5b835b81811015612625578061261188826120f3565b8452602084019350506020810190506125fe565b5050509392505050565b600082601f830112612644576126436124a5565b5b81356126548482602086016125c6565b91505092915050565b600060a082840312156126735761267261240f565b5b61267d60a0612485565b9050600082013567ffffffffffffffff81111561269d5761269c6124a0565b5b6126a984828501612531565b60008301525060206126bd848285016120f3565b60208301525060406126d184828501612580565b60408301525060606126e5848285016120f3565b606083015250608082013567ffffffffffffffff811115612709576127086124a0565b5b6127158482850161262f565b60808301525092915050565b600061272d368361265d565b9050919050565b6000808335600160200384360303811261275157612750612375565b5b80840192508235915067ffffffffffffffff8211156127735761277261237a565b5b60208301925060208202360383131561278f5761278e61237f565b5b509250929050565b600080833560016020038436030381126127b4576127b3612375565b5b80840192508235915067ffffffffffffffff8211156127d6576127d561237a565b5b6020830192506020820236038313156127f2576127f161237f565b5b509250929050565b600082825260208201905092915050565b6000819050919050565b600082825260208201905092915050565b60006128328385612815565b935061283f8385846124e0565b61284883612414565b840190509392505050565b6000612860848484612826565b90509392505050565b600080fd5b600080fd5b600080fd5b6000808335600160200384360303811261289557612894612873565b5b83810192508235915060208301925067ffffffffffffffff8211156128bd576128bc612869565b5b6001820236038313156128d3576128d261286e565b5b509250929050565b6000602082019050919050565b60006128f483856127fa565b9350836020840285016129068461280b565b8060005b8781101561294c5784840389526129218284612878565b61292c868284612853565b9550612937846128db565b935060208b019a50505060018101905061290a565b50829750879450505050509392505050565b600082825260208201905092915050565b6000819050919050565b6129828161217f565b82525050565b60006129948383612979565b60208301905092915050565b60006129af60208401846121a8565b905092915050565b6000602082019050919050565b60006129d0838561295e565b93506129db8261296f565b8060005b85811015612a14576129f182846129a0565b6129fb8882612988565b9750612a06836129b7565b9250506001810190506129df565b5085925050509392505050565b6000606082019050612a366000830188612135565b8181036020830152612a498186886128e8565b90508181036040830152612a5e8184866129c4565b90509695505050505050565b612a738161209c565b8114612a7e57600080fd5b50565b600081519050612a9081612a6a565b92915050565b600060208284031215612aac57612aab61200d565b5b6000612aba84828501612a81565b91505092915050565b600082356001606003833603038112612adf57612ade612375565b5b80830191505092915050565b60008083356001602003843603038112612b0857612b07612375565b5b80840192508235915067ffffffffffffffff821115612b2a57612b2961237a565b5b602083019250602082023603831315612b4657612b4561237f565b5b509250929050565b600060408284031215612b6457612b6361240f565b5b612b6e6040612485565b90506000612b7e84828501612580565b6000830152506020612b92848285016120f3565b60208301525092915050565b600060408284031215612bb457612bb361200d565b5b6000612bc284828501612b4e565b91505092915050565b600081905092915050565b6000612be28385612bcb565b9350612bef8385846124e0565b82840190509392505050565b6000612c08828486612bd6565b91508190509392505050565b600082825260208201905092915050565b7f416c6c69616e636547616d657350726f6f663a20626c6f636b636861696e207260008201527f696420697320696e76616c696400000000000000000000000000000000000000602082015250565b6000612c81602d83612c14565b9150612c8c82612c25565b604082019050919050565b60006020820190508181036000830152612cb081612c74565b9050919050565b7f416c6c69616e636547616d657350726f6f663a2076616c696461746f7220616460008201527f647265737320697320696e76616c696400000000000000000000000000000000602082015250565b6000612d13603083612c14565b9150612d1e82612cb7565b604082019050919050565b60006020820190508181036000830152612d4281612d06565b9050919050565b6000819050919050565b600067ffffffffffffffff82169050919050565b6000612d82612d7d612d7884612d49565b6121fd565b612d53565b9050919050565b612d9281612d67565b82525050565b6000602082019050612dad6000830184612d89565b92915050565b612dbc8161217f565b82525050565b6000602082019050612dd76000830184612db3565b92915050565b7f486173683a2076616c7565206d757374206265203634206279746573206c6f6e60008201527f6700000000000000000000000000000000000000000000000000000000000000602082015250565b6000612e39602183612c14565b9150612e4482612ddd565b604082019050919050565b60006020820190508181036000830152612e6881612e2c565b9050919050565b600060ff82169050919050565b60008160f81b9050919050565b6000612e9482612e7c565b9050919050565b612eac612ea782612e6f565b612e89565b82525050565b600081519050919050565b60005b83811015612edb578082015181840152602081019050612ec0565b60008484015250505050565b6000612ef282612eb2565b612efc8185612bcb565b9350612f0c818560208601612ebd565b80840191505092915050565b6000612f248289612e9b565b600182019150612f348288612e9b565b600182019150612f448287612e9b565b600182019150612f548286612e9b565b600182019150612f648285612e9b565b600182019150612f748284612ee7565b9150819050979650505050505050565b6000612f908284612ee7565b915081905092915050565b600081519050612faa816120dc565b92915050565b600060208284031215612fc657612fc561200d565b5b6000612fd484828501612f9b565b91505092915050565b7f506f7374636861696e3a20696e76616c696420626c6f636b636861696e20726960008201527f6400000000000000000000000000000000000000000000000000000000000000602082015250565b6000613039602183612c14565b915061304482612fdd565b604082019050919050565b600060208201905081810360008301526130688161302c565b9050919050565b7f506f7374636861696e3a20696e76616c6964206578747261206461746120726f60008201527f6f74000000000000000000000000000000000000000000000000000000000000602082015250565b60006130cb602283612c14565b91506130d68261306f565b604082019050919050565b600060208201905081810360008301526130fa816130be565b9050919050565b7f506f7374636861696e3a20696e76616c6964206578747261206d65726b6c652060008201527f70726f6f66000000000000000000000000000000000000000000000000000000602082015250565b600061315d602583612c14565b915061316882613101565b604082019050919050565b6000602082019050818103600083015261318c81613150565b9050919050565b7f4e487b7100000000000000000000000000000000000000000000000000000000600052601160045260246000fd5b60006131cd8261255f565b91506131d88361255f565b92508282026131e68161255f565b915082820484148315176131fd576131fc613193565b5b5092915050565b600061320f8261255f565b915061321a8361255f565b925082820190508082111561323257613231613193565b5b92915050565b7f4e487b7100000000000000000000000000000000000000000000000000000000600052603260045260246000fd5b600060408201905061327c6000830185612db3565b6132896020830184612135565b9392505050565b60008151905061329f81612569565b92915050565b600061010082840312156132bc576132bb61240f565b5b6132c7610100612485565b905060006132d784828501612f9b565b60008301525060206132eb84828501612f9b565b60208301525060406132ff84828501612f9b565b604083015250606061331384828501612f9b565b606083015250608061332784828501613290565b60808301525060a061333b84828501613290565b60a08301525060c061334f84828501612f9b565b60c08301525060e061336384828501612f9b565b60e08301525092915050565b600061010082840312156133865761338561200d565b5b6000613394848285016132a5565b91505092915050565b6000819050919050565b6133b86133b3826120d2565b61339d565b82525050565b60006133ca8286612e9b565b6001820191506133da82856133a7565b6020820191506133ea82846133a7565b602082019150819050949350505050565b7f506f7374636861696e3a20696e76616c696420626c6f636b2068656164657200600082015250565b6000613431601f83612c14565b915061343c826133fb565b602082019050919050565b6000602082019050818103600083015261346081613424565b9050919050565b60006134728261255f565b915061347d8361255f565b925082820390508181111561349557613494613193565b5b92915050565b60006134a782846133a7565b60208201915081905092915050565b60006134c282856133a7565b6020820191506134d282846133a7565b6020820191508190509392505050565b60006134ee8289612e9b565b6001820191506134fe8288612e9b565b60018201915061350e8287612e9b565b60018201915061351e8286612e9b565b60018201915061352e8285612e9b565b60018201915061353e82846133a7565b602082019150819050979650505050505050565b600061355d82612e6f565b915061356883612e6f565b9250828201905060ff81111561358157613580613193565b5b92915050565b600061359282612e6f565b915061359d83612e6f565b9250828203905060ff8111156135b6576135b5613193565b5b92915050565b60006135c782612e6f565b915060ff82036135da576135d9613193565b5b600182019050919050565b60006135f1828a612e9b565b6001820191506136018289612e9b565b6001820191506136118288612e9b565b6001820191506136218287612e9b565b6001820191506136318286612e9b565b6001820191506136418285612e9b565b6001820191506136518284612ee7565b91508190509897505050505050505056fea264697066735822122091837c7328a5fb1e9a7c2ffb74d2eb015a235e4baf880dffe8e91e29b6e5ad5964736f6c634300081c0033",
  "linkReferences": {},
  "deployedLinkReferences": {}
}