{
  "_format": "hh-sol-artifact-1",
  "contractName": "TicTacToe",
  "sourceName": "contracts/TicTacToe.sol",
  "abi": [
    {
      "inputs": [],
      "name": "AccessControlBadConfirmation",
      "type": "error"
    },
    {
      "inputs": [
        {
          "internalType": "address",
          "name": "account",
          "type": "address"
        },
        {
          "internalType": "bytes32",
          "name": "neededRole",
          "type": "bytes32"
        }
      ],
      "name": "AccessControlUnauthorizedAccount",
      "type": "error"
    },
    {
      "inputs": [],
      "name": "EnforcedPause",
      "type": "error"
    },
    {
      "inputs": [],
      "name": "ExpectedPause",
      "type": "error"
    },
    {
      "inputs": [],
      "name": "InvalidInitialization",
      "type": "error"
    },
    {
      "inputs": [],
      "name": "NotInitializing",
      "type": "error"
    },
    {
      "inputs": [],
      "name": "ReentrancyGuardReentrantCall",
      "type": "error"
    },
    {
      "anonymous": false,
      "inputs": [
        {
          "indexed": true,
          "internalType": "contract IValidator",
          "name": "_validator",
          "type": "address"
        }
      ],
      "name": "Initialize",
      "type": "event"
    },
    {
      "anonymous": false,
      "inputs": [
        {
          "indexed": false,
          "internalType": "uint64",
          "name": "version",
          "type": "uint64"
        }
      ],
      "name": "Initialized",
      "type": "event"
    },
    {
      "anonymous": false,
      "inputs": [
        {
          "indexed": false,
          "internalType": "address",
          "name": "account",
          "type": "address"
        }
      ],
      "name": "Paused",
      "type": "event"
    },
    {
      "anonymous": false,
      "inputs": [
        {
          "indexed": true,
          "internalType": "bytes32",
          "name": "hash",
          "type": "bytes32"
        },
        {
          "indexed": false,
          "internalType": "bytes32",
          "name": "eventHash",
          "type": "bytes32"
        }
      ],
      "name": "RewardClaimed",
      "type": "event"
    },
    {
      "anonymous": false,
      "inputs": [
        {
          "indexed": true,
          "internalType": "bytes32",
          "name": "role",
          "type": "bytes32"
        },
        {
          "indexed": true,
          "internalType": "bytes32",
          "name": "previousAdminRole",
          "type": "bytes32"
        },
        {
          "indexed": true,
          "internalType": "bytes32",
          "name": "newAdminRole",
          "type": "bytes32"
        }
      ],
      "name": "RoleAdminChanged",
      "type": "event"
    },
    {
      "anonymous": false,
      "inputs": [
        {
          "indexed": true,
          "internalType": "bytes32",
          "name": "role",
          "type": "bytes32"
        },
        {
          "indexed": true,
          "internalType": "address",
          "name": "account",
          "type": "address"
        },
        {
          "indexed": true,
          "internalType": "address",
          "name": "sender",
          "type": "address"
        }
      ],
      "name": "RoleGranted",
      "type": "event"
    },
    {
      "anonymous": false,
      "inputs": [
        {
          "indexed": true,
          "internalType": "bytes32",
          "name": "role",
          "type": "bytes32"
        },
        {
          "indexed": true,
          "internalType": "address",
          "name": "account",
          "type": "address"
        },
        {
          "indexed": true,
          "internalType": "address",
          "name": "sender",
          "type": "address"
        }
      ],
      "name": "RoleRevoked",
      "type": "event"
    },
    {
      "anonymous": false,
      "inputs": [
        {
          "indexed": false,
          "internalType": "bytes32",
          "name": "rid",
          "type": "bytes32"
        }
      ],
      "name": "SetBlockchainRid",
      "type": "event"
    },
    {
      "anonymous": false,
      "inputs": [
        {
          "indexed": false,
          "internalType": "address",
          "name": "account",
          "type": "address"
        }
      ],
      "name": "Unpaused",
      "type": "event"
    },
    {
      "inputs": [
        {
          "internalType": "bytes",
          "name": "_event",
          "type": "bytes"
        },
        {
          "components": [
            {
              "internalType": "bytes32",
              "name": "leaf",
              "type": "bytes32"
            },
            {
              "internalType": "uint256",
              "name": "position",
              "type": "uint256"
            },
            {
              "internalType": "bytes32[]",
              "name": "merkleProofs",
              "type": "bytes32[]"
            }
          ],
          "internalType": "struct Data.Proof",
          "name": "eventProof",
          "type": "tuple"
        },
        {
          "internalType": "bytes",
          "name": "blockHeader",
          "type": "bytes"
        },
        {
          "internalType": "bytes[]",
          "name": "sigs",
          "type": "bytes[]"
        },
        {
          "internalType": "address[]",
          "name": "signers",
          "type": "address[]"
        },
        {
          "components": [
            {
              "internalType": "bytes",
              "name": "leaf",
              "type": "bytes"
            },
            {
              "internalType": "bytes32",
              "name": "hashedLeaf",
              "type": "bytes32"
            },
            {
              "internalType": "uint256",
              "name": "position",
              "type": "uint256"
            },
            {
              "internalType": "bytes32",
              "name": "extraRoot",
              "type": "bytes32"
            },
            {
              "internalType": "bytes32[]",
              "name": "extraMerkleProofs",
              "type": "bytes32[]"
            }
          ],
          "internalType": "struct Data.ExtraProofData",
          "name": "extraProof",
          "type": "tuple"
        },
        {
          "internalType": "bytes",
          "name": "encodedData",
          "type": "bytes"
        }
      ],
      "name": "Claim",
      "outputs": [],
      "stateMutability": "nonpayable",
      "type": "function"
    },
    {
      "inputs": [],
      "name": "DEFAULT_ADMIN_ROLE",
      "outputs": [
        {
          "internalType": "bytes32",
          "name": "",
          "type": "bytes32"
        }
      ],
      "stateMutability": "view",
      "type": "function"
    },
    {
      "inputs": [],
      "name": "GAME_CONTROL",
      "outputs": [
        {
          "internalType": "bytes32",
          "name": "",
          "type": "bytes32"
        }
      ],
      "stateMutability": "view",
      "type": "function"
    },
    {
      "inputs": [],
      "name": "PAUSER_ROLE",
      "outputs": [
        {
          "internalType": "bytes32",
          "name": "",
          "type": "bytes32"
        }
      ],
      "stateMutability": "view",
      "type": "function"
    },
    {
      "inputs": [
        {
          "internalType": "address",
          "name": "pubkey",
          "type": "address"
        }
      ],
      "name": "getPoints",
      "outputs": [
        {
          "internalType": "uint256",
          "name": "",
          "type": "uint256"
        }
      ],
      "stateMutability": "view",
      "type": "function"
    },
    {
      "inputs": [
        {
          "internalType": "bytes32",
          "name": "role",
          "type": "bytes32"
        }
      ],
      "name": "getRoleAdmin",
      "outputs": [
        {
          "internalType": "bytes32",
          "name": "",
          "type": "bytes32"
        }
      ],
      "stateMutability": "view",
      "type": "function"
    },
    {
      "inputs": [
        {
          "internalType": "bytes32",
          "name": "role",
          "type": "bytes32"
        },
        {
          "internalType": "address",
          "name": "account",
          "type": "address"
        }
      ],
      "name": "grantRole",
      "outputs": [],
      "stateMutability": "nonpayable",
      "type": "function"
    },
    {
      "inputs": [
        {
          "internalType": "bytes32",
          "name": "role",
          "type": "bytes32"
        },
        {
          "internalType": "address",
          "name": "account",
          "type": "address"
        }
      ],
      "name": "hasRole",
      "outputs": [
        {
          "internalType": "bool",
          "name": "",
          "type": "bool"
        }
      ],
      "stateMutability": "view",
      "type": "function"
    },
    {
      "inputs": [
        {
          "internalType": "contract IValidator",
          "name": "_validator",
          "type": "address"
        },
        {
          "internalType": "bytes32",
          "name": "rid",
          "type": "bytes32"
        },
        {
          "internalType": "address",
          "name": "_defaultAdmin",
          "type": "address"
        }
      ],
      "name": "initialize",
      "outputs": [],
      "stateMutability": "nonpayable",
      "type": "function"
    },
    {
      "inputs": [],
      "name": "pause",
      "outputs": [],
      "stateMutability": "nonpayable",
      "type": "function"
    },
    {
      "inputs": [],
      "name": "paused",
      "outputs": [
        {
          "internalType": "bool",
          "name": "",
          "type": "bool"
        }
      ],
      "stateMutability": "view",
      "type": "function"
    },
    {
      "inputs": [
        {
          "internalType": "bytes32",
          "name": "role",
          "type": "bytes32"
        },
        {
          "internalType": "address",
          "name": "callerConfirmation",
          "type": "address"
        }
      ],
      "name": "renounceRole",
      "outputs": [],
      "stateMutability": "nonpayable",
      "type": "function"
    },
    {
      "inputs": [
        {
          "internalType": "bytes32",
          "name": "role",
          "type": "bytes32"
        },
        {
          "internalType": "address",
          "name": "account",
          "type": "address"
        }
      ],
      "name": "revokeRole",
      "outputs": [],
      "stateMutability": "nonpayable",
      "type": "function"
    },
    {
      "inputs": [
        {
          "internalType": "bytes32",
          "name": "rid",
          "type": "bytes32"
        }
      ],
      "name": "setBlockchainRid",
      "outputs": [],
      "stateMutability": "nonpayable",
      "type": "function"
    },
    {
      "inputs": [
        {
          "internalType": "bytes4",
          "name": "interfaceId",
          "type": "bytes4"
        }
      ],
      "name": "supportsInterface",
      "outputs": [
        {
          "internalType": "bool",
          "name": "",
          "type": "bool"
        }
      ],
      "stateMutability": "view",
      "type": "function"
    },
    {
      "inputs": [],
      "name": "unpause",
      "outputs": [],
      "stateMutability": "nonpayable",
      "type": "function"
    },
    {
      "inputs": [],
      "name": "validator",
      "outputs": [
        {
          "internalType": "contract IValidator",
          "name": "",
          "type": "address"
        }
      ],
      "stateMutability": "view",
      "type": "function"
    }
  ],
  "bytecode": "0x6080604052348015600f57600080fd5b50613fca8061001f6000396000f3fe608060405234801561001057600080fd5b506004361061010b5760003560e01c80638456cb59116100a2578063d26b3e6e11610071578063d26b3e6e14610280578063d547741f1461029c578063e63ab1e9146102b8578063eac4024f146102d6578063ee204abb146102f25761010b565b80638456cb591461020a57806391d1485414610214578063a217fddf14610244578063adc24775146102625761010b565b80633a5381b5116100de5780633a5381b5146101a85780633f4ba83a146101c65780635c975abb146101d0578063633e0160146101ee5761010b565b806301ffc9a714610110578063248a9ca3146101405780632f2ff15d1461017057806336568abe1461018c575b600080fd5b61012a6004803603810190610125919061226e565b610322565b60405161013791906122b6565b60405180910390f35b61015a60048036038101906101559190612307565b61039c565b6040516101679190612343565b60405180910390f35b61018a600480360381019061018591906123bc565b6103ca565b005b6101a660048036038101906101a191906123bc565b6103ec565b005b6101b0610467565b6040516101bd919061245b565b60405180910390f35b6101ce61048b565b005b6101d86104c0565b6040516101e591906122b6565b60405180910390f35b61020860048036038101906102039190612307565b6104e5565b005b610212610596565b005b61022e600480360381019061022991906123bc565b6105cb565b60405161023b91906122b6565b60405180910390f35b61024c610644565b6040516102599190612343565b60405180910390f35b61026a61064b565b6040516102779190612343565b60405180910390f35b61029a600480360381019061029591906124b4565b61066f565b005b6102b660048036038101906102b191906123bc565b61096c565b005b6102c061098e565b6040516102cd9190612343565b60405180910390f35b6102f060048036038101906102eb9190612a3d565b6109b2565b005b61030c60048036038101906103079190612ba3565b610e5c565b6040516103199190612bdf565b60405180910390f35b60007f7965db0b000000000000000000000000000000000000000000000000000000007bffffffffffffffffffffffffffffffffffffffffffffffffffffffff1916827bffffffffffffffffffffffffffffffffffffffffffffffffffffffff19161480610395575061039482610ea5565b5b9050919050565b6000806103a7610f0f565b905080600001600084815260200190815260200160002060010154915050919050565b6103d38261039c565b6103dc81610f37565b6103e68383610f4b565b50505050565b6103f461104c565b73ffffffffffffffffffffffffffffffffffffffff168173ffffffffffffffffffffffffffffffffffffffff1614610458576040517f6697b23200000000000000000000000000000000000000000000000000000000815260040160405180910390fd5b6104628282611054565b505050565b60008054906101000a900473ffffffffffffffffffffffffffffffffffffffff1681565b7f65d7a28e3265b37a6474929f336521b332c1681b933f6cb9f3376673440d862a6104b581610f37565b6104bd611156565b50565b6000806104cb6111c8565b90508060000160009054906101000a900460ff1691505090565b7f52c6173eca90eb88e8418a46ffb14c4cc3f3d5f027d258af306f3361d6a6a0b661050f81610f37565b6000801b8203610554576040517f08c379a000000000000000000000000000000000000000000000000000000000815260040161054b90612c7d565b60405180910390fd5b816001819055507fc4597ce7b4ac4379ee010b7c4818ac208506ea6f6170d4ed5f6421246ca5ff808260405161058a9190612343565b60405180910390a15050565b7f65d7a28e3265b37a6474929f336521b332c1681b933f6cb9f3376673440d862a6105c081610f37565b6105c86111f0565b50565b6000806105d6610f0f565b905080600001600085815260200190815260200160002060000160008473ffffffffffffffffffffffffffffffffffffffff1673ffffffffffffffffffffffffffffffffffffffff16815260200190815260200160002060009054906101000a900460ff1691505092915050565b6000801b81565b7f52c6173eca90eb88e8418a46ffb14c4cc3f3d5f027d258af306f3361d6a6a0b681565b6000610679611262565b905060008160000160089054906101000a900460ff1615905060008260000160009054906101000a900467ffffffffffffffff1690506000808267ffffffffffffffff161480156106c75750825b9050600060018367ffffffffffffffff161480156106fc575060003073ffffffffffffffffffffffffffffffffffffffff163b145b90508115801561070a575080155b15610741576040517ff92ee8a900000000000000000000000000000000000000000000000000000000815260040160405180910390fd5b60018560000160006101000a81548167ffffffffffffffff021916908367ffffffffffffffff16021790555083156107915760018560000160086101000a81548160ff0219169083151502179055505b600073ffffffffffffffffffffffffffffffffffffffff168873ffffffffffffffffffffffffffffffffffffffff1603610800576040517f08c379a00000000000000000000000000000000000000000000000000000000081526004016107f790612d0f565b60405180910390fd5b61080861128a565b610810611294565b6108186112a6565b6108256000801b87610f4b565b506108507f52c6173eca90eb88e8418a46ffb14c4cc3f3d5f027d258af306f3361d6a6a0b687610f4b565b5061087b7f65d7a28e3265b37a6474929f336521b332c1681b933f6cb9f3376673440d862a87610f4b565b50876000806101000a81548173ffffffffffffffffffffffffffffffffffffffff021916908373ffffffffffffffffffffffffffffffffffffffff160217905550866001819055508773ffffffffffffffffffffffffffffffffffffffff167f36b1453565f45af7b509b59d5e2eac8f1948ea9e3e193db6663b4101afb6382c60405160405180910390a283156109625760008560000160086101000a81548160ff0219169083151502179055507fc7f505b2f371ae2175ee4913f4499e1f2633a7b5936321eed1cdaeb6115181d260016040516109599190612d7e565b60405180910390a15b5050505050505050565b6109758261039c565b61097e81610f37565b6109888383611054565b50505050565b7f65d7a28e3265b37a6474929f336521b332c1681b933f6cb9f3376673440d862a81565b6109ba6112b8565b6000801b60015403610a01576040517f08c379a00000000000000000000000000000000000000000000000000000000081526004016109f890612e0b565b60405180910390fd5b60001515600260008860000151815260200190815260200160002060009054906101000a900460ff16151514610a6c576040517f08c379a0000000000000000000000000000000000000000000000000000000008152600401610a6390612e9d565b60405180910390fd5b8160200151610a7e83600001516112f9565b14610abe576040517f08c379a0000000000000000000000000000000000000000000000000000000008152600401610ab590612f2f565b60405180910390fd5b6000610acd60015487856113c4565b9150506000610ae1846000015160006114e1565b905060008054906101000a900473ffffffffffffffffffffffffffffffffffffffff1673ffffffffffffffffffffffffffffffffffffffff16638e1dbab88388886040518463ffffffff1660e01b8152600401610b409392919061314e565b602060405180830381865afa158015610b5d573d6000803e3d6000fd5b505050506040513d601f19601f82011682018060405250810190610b8191906131bf565b610bc0576040517f08c379a0000000000000000000000000000000000000000000000000000000008152600401610bb79061325e565b60405180910390fd5b610bd8886040015189600001518a602001518461156c565b610c17576040517f08c379a0000000000000000000000000000000000000000000000000000000008152600401610c0e906132ca565b60405180910390fd5b600089806020019051810190610c2d9190613364565b905088600001518a8051906020012014610c7c576040517f08c379a0000000000000000000000000000000000000000000000000000000008152600401610c73906133dd565b60405180910390fd5b6001600260008b60000151815260200190815260200160002060006101000a81548160ff0219169083151502179055508060200151848051906020012014610cf9576040517f08c379a0000000000000000000000000000000000000000000000000000000008152600401610cf090613449565b60405180910390fd5b600084806020019051810190610d0f91906136fd565b905060005b8151811015610e0e573373ffffffffffffffffffffffffffffffffffffffff16828281518110610d4757610d46613746565b5b60200260200101516000015173ffffffffffffffffffffffffffffffffffffffff1603610e0157818181518110610d8157610d80613746565b5b60200260200101516060015160036000848481518110610da457610da3613746565b5b60200260200101516000015173ffffffffffffffffffffffffffffffffffffffff1673ffffffffffffffffffffffffffffffffffffffff1681526020019081526020016000206000828254610df991906137a4565b925050819055505b8080600101915050610d14565b5081602001517f933744a01f8d91231c01d477dc3b2f1487e5e7ccae04aa0db0dd2e8af10962cf8b60000151604051610e479190612343565b60405180910390a25050505050505050505050565b6000600360008373ffffffffffffffffffffffffffffffffffffffff1673ffffffffffffffffffffffffffffffffffffffff168152602001908152602001600020549050919050565b60007f01ffc9a7000000000000000000000000000000000000000000000000000000007bffffffffffffffffffffffffffffffffffffffffffffffffffffffff1916827bffffffffffffffffffffffffffffffffffffffffffffffffffffffff1916149050919050565b60007f02dd7bc7dec4dceedda775e58dd541e08a116c6c53815c0bd028192f7b626800905090565b610f4881610f4361104c565b611626565b50565b600080610f56610f0f565b9050610f6284846105cb565b61104057600181600001600086815260200190815260200160002060000160008573ffffffffffffffffffffffffffffffffffffffff1673ffffffffffffffffffffffffffffffffffffffff16815260200190815260200160002060006101000a81548160ff021916908315150217905550610fdc61104c565b73ffffffffffffffffffffffffffffffffffffffff168373ffffffffffffffffffffffffffffffffffffffff16857f2f8788117e7eff1d82e926ec794901d17c78024a50270940304540a733656f0d60405160405180910390a46001915050611046565b60009150505b92915050565b600033905090565b60008061105f610f0f565b905061106b84846105cb565b1561114a57600081600001600086815260200190815260200160002060000160008573ffffffffffffffffffffffffffffffffffffffff1673ffffffffffffffffffffffffffffffffffffffff16815260200190815260200160002060006101000a81548160ff0219169083151502179055506110e661104c565b73ffffffffffffffffffffffffffffffffffffffff168373ffffffffffffffffffffffffffffffffffffffff16857ff6391f5c32d9c69d2a47ea670b442974b53935d1edc7fd64eb21e047a839171b60405160405180910390a46001915050611150565b60009150505b92915050565b61115e611677565b60006111686111c8565b905060008160000160006101000a81548160ff0219169083151502179055507f5db9ee0a495bf2e6ff9c91a7834c1ba4fdd244a5e8aa4e537bd38aeae4b073aa6111b061104c565b6040516111bd91906137e7565b60405180910390a150565b60007fcd5ed15c6e187e77e9aee88184c21f4f2182ab5827cb3b7e07fbedcd63f03300905090565b6111f86112b8565b60006112026111c8565b905060018160000160006101000a81548160ff0219169083151502179055507f62e78cea01bee320cd4e420270b5ea74000d11b0c9f74754ebdbfc544b05a25861124a61104c565b60405161125791906137e7565b60405180910390a150565b60007ff0c57e16840df040f15088dc2f81fe391c3923bec73e23a9662efc9c229c6a00905090565b6112926116b7565b565b61129c6116b7565b6112a46116f7565b565b6112ae6116b7565b6112b661172b565b565b6112c06104c0565b156112f7576040517fd93c066500000000000000000000000000000000000000000000000000000000815260040160405180910390fd5b565b6000604082511461133f576040517f08c379a000000000000000000000000000000000000000000000000000000000815260040161133690613874565b60405180910390fd5b6002600160a16042600460408760405160200161136196959493929190613906565b60405160208183030381529060405260405161137d9190613972565b602060405180830381855afa15801561139a573d6000803e3d6000fd5b5050506040513d601f19601f820116820180604052508101906113bd9190613989565b9050919050565b60008060006113d28561174c565b90508060000151861461141a576040517f08c379a000000000000000000000000000000000000000000000000000000000815260040161141190613a28565b60405180910390fd5b8060e00151846060015114611464576040517f08c379a000000000000000000000000000000000000000000000000000000000815260040161145b90613aba565b60405180910390fd5b61148b8460200151856040015186606001518760800151611acd909392919063ffffffff16565b6114ca576040517f08c379a00000000000000000000000000000000000000000000000000000000081526004016114c190613b4c565b60405180910390fd5b8060a0015181602001519250925050935093915050565b60008060005b6020811015611561576008816114fd9190613b6c565b60ff60f81b86838761150f91906137a4565b815181106115205761151f613746565b5b602001015160f81c60f81b167effffffffffffffffffffffffffffffffffffffffffffffffffffffffffffff1916901c8217915080806001019150506114e7565b508091505092915050565b60008060001b841480611584575084516001901b8310155b15611592576000905061161e565b600084905060005b8651811015611616576000816001901b86169050600081036115e1576115da838984815181106115cd576115cc613746565b5b6020026020010151611d98565b9250611608565b6116058883815181106115f7576115f6613746565b5b602002602001015184611d98565b92505b50808060010191505061159a565b508281149150505b949350505050565b61163082826105cb565b6116735780826040517fe2517d3f00000000000000000000000000000000000000000000000000000000815260040161166a929190613bae565b60405180910390fd5b5050565b61167f6104c0565b6116b5576040517f8dfc202b00000000000000000000000000000000000000000000000000000000815260040160405180910390fd5b565b6116bf611e60565b6116f5576040517fd7e6bcf800000000000000000000000000000000000000000000000000000000815260040160405180910390fd5b565b6116ff6116b7565b60006117096111c8565b905060008160000160006101000a81548160ff02191690831515021790555050565b6117336116b7565b600061173d611e80565b90506001816000018190555050565b6117546121ab565b60008280602001905181019061176a9190613ca1565b905060006002600061177f8460000151611ea8565b61178c8560400151611ea8565b60405160200161179e93929190613cf0565b6040516020818303038152906040526040516117ba9190613972565b602060405180830381855afa1580156117d7573d6000803e3d6000fd5b5050506040513d601f19601f820116820180604052508101906117fa9190613989565b905060006002600084606001516118148660800151611f2f565b60405160200161182693929190613cf0565b6040516020818303038152906040526040516118429190613972565b602060405180830381855afa15801561185f573d6000803e3d6000fd5b5050506040513d601f19601f820116820180604052508101906118829190613989565b90506000600260006118978660a00151611f2f565b8660c001516040516020016118ae93929190613cf0565b6040516020818303038152906040526040516118ca9190613972565b602060405180830381855afa1580156118e7573d6000803e3d6000fd5b5050506040513d601f19601f8201168201806040525081019061190a9190613989565b9050600060026000858560405160200161192693929190613cf0565b6040516020818303038152906040526040516119429190613972565b602060405180830381855afa15801561195f573d6000803e3d6000fd5b5050506040513d601f19601f820116820180604052508101906119829190613989565b9050600060026000848860e001516040516020016119a293929190613cf0565b6040516020818303038152906040526040516119be9190613972565b602060405180830381855afa1580156119db573d6000803e3d6000fd5b5050506040513d601f19601f820116820180604052508101906119fe9190613989565b90506000600260078484604051602001611a1a93929190613cf0565b604051602081830303815290604052604051611a369190613972565b602060405180830381855afa158015611a53573d6000803e3d6000fd5b5050506040513d601f19601f82011682018060405250810190611a769190613989565b905086602001518114611abe576040517f08c379a0000000000000000000000000000000000000000000000000000000008152600401611ab590613d79565b60405180910390fd5b86975050505050505050919050565b600084516001901b8310611ae45760009050611d90565b6000849050600060018751611af99190613d99565b905060005b81811015611c4d576000816001901b8716905060008103611bae5760026000858b8581518110611b3157611b30613746565b5b6020026020010151604051602001611b4b93929190613cf0565b604051602081830303815290604052604051611b679190613972565b602060405180830381855afa158015611b84573d6000803e3d6000fd5b5050506040513d601f19601f82011682018060405250810190611ba79190613989565b9350611c3f565b600260008a8481518110611bc557611bc4613746565b5b602002602001015186604051602001611be093929190613cf0565b604051602081830303815290604052604051611bfc9190613972565b602060405180830381855afa158015611c19573d6000803e3d6000fd5b5050506040513d601f19601f82011682018060405250810190611c3c9190613989565b93505b508080600101915050611afe565b506000816001901b8616905060008103611cf65760026008848a8581518110611c7957611c78613746565b5b6020026020010151604051602001611c9393929190613cf0565b604051602081830303815290604052604051611caf9190613972565b602060405180830381855afa158015611ccc573d6000803e3d6000fd5b5050506040513d601f19601f82011682018060405250810190611cef9190613989565b9250611d87565b60026008898481518110611d0d57611d0c613746565b5b602002602001015185604051602001611d2893929190613cf0565b604051602081830303815290604052604051611d449190613972565b602060405180830381855afa158015611d61573d6000803e3d6000fd5b5050506040513d601f19601f82011682018060405250810190611d849190613989565b92505b84831493505050505b949350505050565b60008060001b83148015611dae57506000801b82145b15611dbe576000801b9050611e5a565b6000801b8303611df65781604051602001611dd99190613dcd565b604051602081830303815290604052805190602001209050611e5a565b6000801b8203611e2e5782604051602001611e119190613dcd565b604051602081830303815290604052805190602001209050611e5a565b8282604051602001611e41929190613de8565b6040516020818303038152906040528051906020012090505b92915050565b6000611e6a611262565b60000160089054906101000a900460ff16905090565b60007f9b779b17422d0df92223018b32b4d1fa46e071723d6817e2486d003becc55f00905090565b60006002600160a160226004602087604051602001611ecc96959493929190613e14565b604051602081830303815290604052604051611ee89190613972565b602060405180830381855afa158015611f05573d6000803e3d6000fd5b5050506040513d601f19601f82011682018060405250810190611f289190613989565b9050919050565b600080600190506000600884901c90505b6000811115611f6457600182611f569190613e84565b9150600881901c9050611f40565b60008260ff1667ffffffffffffffff811115611f8357611f82612522565b5b6040519080825280601f01601f191660200182016040528015611fb55781602001600182028036833780820191505090505b5090508491506000600190505b8360ff168160ff161161204657600060ff841690508060f81b838387611fe89190613eb9565b60ff1681518110611ffc57611ffb613746565b5b60200101907effffffffffffffffffffffffffffffffffffffffffffffffffffffffffffff1916908160001a905350600884901c935050808061203e90613eee565b915050611fc2565b50600060808260008151811061205f5761205e613746565b5b602001015160f81c60f81b60f81c1660ff161115612118576002600160a360038661208a9190613e84565b60026001886120999190613e84565b6000876040516020016120b29796959493929190613f17565b6040516020818303038152906040526040516120ce9190613972565b602060405180830381855afa1580156120eb573d6000803e3d6000fd5b5050506040513d601f19601f8201168201806040525081019061210e9190613989565b93505050506121a6565b6002600160a360028661212b9190613e84565b6002878660405160200161214496959493929190613906565b6040516020818303038152906040526040516121609190613972565b602060405180830381855afa15801561217d573d6000803e3d6000fd5b5050506040513d601f19601f820116820180604052508101906121a09190613989565b93505050505b919050565b60405180610100016040528060008019168152602001600080191681526020016000801916815260200160008019168152602001600081526020016000815260200160008019168152602001600080191681525090565b6000604051905090565b600080fd5b600080fd5b60007fffffffff0000000000000000000000000000000000000000000000000000000082169050919050565b61224b81612216565b811461225657600080fd5b50565b60008135905061226881612242565b92915050565b6000602082840312156122845761228361220c565b5b600061229284828501612259565b91505092915050565b60008115159050919050565b6122b08161229b565b82525050565b60006020820190506122cb60008301846122a7565b92915050565b6000819050919050565b6122e4816122d1565b81146122ef57600080fd5b50565b600081359050612301816122db565b92915050565b60006020828403121561231d5761231c61220c565b5b600061232b848285016122f2565b91505092915050565b61233d816122d1565b82525050565b60006020820190506123586000830184612334565b92915050565b600073ffffffffffffffffffffffffffffffffffffffff82169050919050565b60006123898261235e565b9050919050565b6123998161237e565b81146123a457600080fd5b50565b6000813590506123b681612390565b92915050565b600080604083850312156123d3576123d261220c565b5b60006123e1858286016122f2565b92505060206123f2858286016123a7565b9150509250929050565b6000819050919050565b600061242161241c6124178461235e565b6123fc565b61235e565b9050919050565b600061243382612406565b9050919050565b600061244582612428565b9050919050565b6124558161243a565b82525050565b6000602082019050612470600083018461244c565b92915050565b60006124818261237e565b9050919050565b61249181612476565b811461249c57600080fd5b50565b6000813590506124ae81612488565b92915050565b6000806000606084860312156124cd576124cc61220c565b5b60006124db8682870161249f565b93505060206124ec868287016122f2565b92505060406124fd868287016123a7565b9150509250925092565b600080fd5b600080fd5b6000601f19601f8301169050919050565b7f4e487b7100000000000000000000000000000000000000000000000000000000600052604160045260246000fd5b61255a82612511565b810181811067ffffffffffffffff8211171561257957612578612522565b5b80604052505050565b600061258c612202565b90506125988282612551565b919050565b600067ffffffffffffffff8211156125b8576125b7612522565b5b6125c182612511565b9050602081019050919050565b82818337600083830152505050565b60006125f06125eb8461259d565b612582565b90508281526020810184848401111561260c5761260b61250c565b5b6126178482856125ce565b509392505050565b600082601f83011261263457612633612507565b5b81356126448482602086016125dd565b91505092915050565b600080fd5b600080fd5b6000819050919050565b61266a81612657565b811461267557600080fd5b50565b60008135905061268781612661565b92915050565b600067ffffffffffffffff8211156126a8576126a7612522565b5b602082029050602081019050919050565b600080fd5b60006126d16126cc8461268d565b612582565b905080838252602082019050602084028301858111156126f4576126f36126b9565b5b835b8181101561271d578061270988826122f2565b8452602084019350506020810190506126f6565b5050509392505050565b600082601f83011261273c5761273b612507565b5b813561274c8482602086016126be565b91505092915050565b60006060828403121561276b5761276a61264d565b5b6127756060612582565b90506000612785848285016122f2565b600083015250602061279984828501612678565b602083015250604082013567ffffffffffffffff8111156127bd576127bc612652565b5b6127c984828501612727565b60408301525092915050565b600067ffffffffffffffff8211156127f0576127ef612522565b5b602082029050602081019050919050565b600061281461280f846127d5565b612582565b90508083825260208201905060208402830185811115612837576128366126b9565b5b835b8181101561287e57803567ffffffffffffffff81111561285c5761285b612507565b5b808601612869898261261f565b85526020850194505050602081019050612839565b5050509392505050565b600082601f83011261289d5761289c612507565b5b81356128ad848260208601612801565b91505092915050565b600067ffffffffffffffff8211156128d1576128d0612522565b5b602082029050602081019050919050565b60006128f56128f0846128b6565b612582565b90508083825260208201905060208402830185811115612918576129176126b9565b5b835b81811015612941578061292d88826123a7565b84526020840193505060208101905061291a565b5050509392505050565b600082601f8301126129605761295f612507565b5b81356129708482602086016128e2565b91505092915050565b600060a0828403121561298f5761298e61264d565b5b61299960a0612582565b9050600082013567ffffffffffffffff8111156129b9576129b8612652565b5b6129c58482850161261f565b60008301525060206129d9848285016122f2565b60208301525060406129ed84828501612678565b6040830152506060612a01848285016122f2565b606083015250608082013567ffffffffffffffff811115612a2557612a24612652565b5b612a3184828501612727565b60808301525092915050565b600080600080600080600060e0888a031215612a5c57612a5b61220c565b5b600088013567ffffffffffffffff811115612a7a57612a79612211565b5b612a868a828b0161261f565b975050602088013567ffffffffffffffff811115612aa757612aa6612211565b5b612ab38a828b01612755565b965050604088013567ffffffffffffffff811115612ad457612ad3612211565b5b612ae08a828b0161261f565b955050606088013567ffffffffffffffff811115612b0157612b00612211565b5b612b0d8a828b01612888565b945050608088013567ffffffffffffffff811115612b2e57612b2d612211565b5b612b3a8a828b0161294b565b93505060a088013567ffffffffffffffff811115612b5b57612b5a612211565b5b612b678a828b01612979565b92505060c088013567ffffffffffffffff811115612b8857612b87612211565b5b612b948a828b0161261f565b91505092959891949750929550565b600060208284031215612bb957612bb861220c565b5b6000612bc7848285016123a7565b91505092915050565b612bd981612657565b82525050565b6000602082019050612bf46000830184612bd0565b92915050565b600082825260208201905092915050565b7f546963546163546f653a20626c6f636b636861696e2072696420697320696e7660008201527f616c696400000000000000000000000000000000000000000000000000000000602082015250565b6000612c67602483612bfa565b9150612c7282612c0b565b604082019050919050565b60006020820190508181036000830152612c9681612c5a565b9050919050565b7f546963546163546f653a2076616c696461746f7220616464726573732069732060008201527f696e76616c696400000000000000000000000000000000000000000000000000602082015250565b6000612cf9602783612bfa565b9150612d0482612c9d565b604082019050919050565b60006020820190508181036000830152612d2881612cec565b9050919050565b6000819050919050565b600067ffffffffffffffff82169050919050565b6000612d68612d63612d5e84612d2f565b6123fc565b612d39565b9050919050565b612d7881612d4d565b82525050565b6000602082019050612d936000830184612d6f565b92915050565b7f546963546163546f653a20626c6f636b636861696e20726964206973206e6f7460008201527f2073657400000000000000000000000000000000000000000000000000000000602082015250565b6000612df5602483612bfa565b9150612e0082612d99565b604082019050919050565b60006020820190508181036000830152612e2481612de8565b9050919050565b7f546963546163546f653a206576656e7420686173682077617320616c7265616460008201527f7920757365640000000000000000000000000000000000000000000000000000602082015250565b6000612e87602683612bfa565b9150612e9282612e2b565b604082019050919050565b60006020820190508181036000830152612eb681612e7a565b9050919050565b7f506f7374636861696e3a20696e76616c6964204549462065787472612064617460008201527f6100000000000000000000000000000000000000000000000000000000000000602082015250565b6000612f19602183612bfa565b9150612f2482612ebd565b604082019050919050565b60006020820190508181036000830152612f4881612f0c565b9050919050565b600081519050919050565b600082825260208201905092915050565b6000819050602082019050919050565b600081519050919050565b600082825260208201905092915050565b60005b83811015612fb5578082015181840152602081019050612f9a565b60008484015250505050565b6000612fcc82612f7b565b612fd68185612f86565b9350612fe6818560208601612f97565b612fef81612511565b840191505092915050565b60006130068383612fc1565b905092915050565b6000602082019050919050565b600061302682612f4f565b6130308185612f5a565b93508360208202850161304285612f6b565b8060005b8581101561307e578484038952815161305f8582612ffa565b945061306a8361300e565b925060208a01995050600181019050613046565b50829750879550505050505092915050565b600081519050919050565b600082825260208201905092915050565b6000819050602082019050919050565b6130c58161237e565b82525050565b60006130d783836130bc565b60208301905092915050565b6000602082019050919050565b60006130fb82613090565b613105818561309b565b9350613110836130ac565b8060005b8381101561314157815161312888826130cb565b9750613133836130e3565b925050600181019050613114565b5085935050505092915050565b60006060820190506131636000830186612334565b8181036020830152613175818561301b565b9050818103604083015261318981846130f0565b9050949350505050565b61319c8161229b565b81146131a757600080fd5b50565b6000815190506131b981613193565b92915050565b6000602082840312156131d5576131d461220c565b5b60006131e3848285016131aa565b91505092915050565b7f546963546163546f653a20626c6f636b207369676e617475726520697320696e60008201527f76616c6964000000000000000000000000000000000000000000000000000000602082015250565b6000613248602583612bfa565b9150613253826131ec565b604082019050919050565b600060208201905081810360008301526132778161323b565b9050919050565b7f546963546163546f653a20696e76616c6964206d65726b6c652070726f6f6600600082015250565b60006132b4601f83612bfa565b91506132bf8261327e565b602082019050919050565b600060208201905081810360008301526132e3816132a7565b9050919050565b6000815190506132f981612661565b92915050565b60008151905061330e816122db565b92915050565b60006040828403121561332a5761332961264d565b5b6133346040612582565b90506000613344848285016132ea565b6000830152506020613358848285016132ff565b60208301525092915050565b60006040828403121561337a5761337961220c565b5b600061338884828501613314565b91505092915050565b7f506f7374636861696e3a20696e76616c6964206576656e740000000000000000600082015250565b60006133c7601883612bfa565b91506133d282613391565b602082019050919050565b600060208201905081810360008301526133f6816133ba565b9050919050565b7f546963546163546f653a20696e76616c69642072657761726420686173680000600082015250565b6000613433601e83612bfa565b915061343e826133fd565b602082019050919050565b6000602082019050818103600083015261346281613426565b9050919050565b600067ffffffffffffffff82111561348457613483612522565b5b602082029050602081019050919050565b6000815190506134a481612390565b92915050565b600067ffffffffffffffff8211156134c5576134c4612522565b5b6134ce82612511565b9050602081019050919050565b60006134ee6134e9846134aa565b612582565b90508281526020810184848401111561350a5761350961250c565b5b613515848285612f97565b509392505050565b600082601f83011261353257613531612507565b5b81516135428482602086016134db565b91505092915050565b600060ff82169050919050565b6135618161354b565b811461356c57600080fd5b50565b60008151905061357e81613558565b92915050565b600060a0828403121561359a5761359961264d565b5b6135a460a0612582565b905060006135b484828501613495565b600083015250602082015167ffffffffffffffff8111156135d8576135d7612652565b5b6135e48482850161351d565b602083015250604082015167ffffffffffffffff81111561360857613607612652565b5b6136148482850161351d565b6040830152506060613628848285016132ea565b606083015250608061363c8482850161356f565b60808301525092915050565b600061365b61365684613469565b612582565b9050808382526020820190506020840283018581111561367e5761367d6126b9565b5b835b818110156136c557805167ffffffffffffffff8111156136a3576136a2612507565b5b8086016136b08982613584565b85526020850194505050602081019050613680565b5050509392505050565b600082601f8301126136e4576136e3612507565b5b81516136f4848260208601613648565b91505092915050565b6000602082840312156137135761371261220c565b5b600082015167ffffffffffffffff81111561373157613730612211565b5b61373d848285016136cf565b91505092915050565b7f4e487b7100000000000000000000000000000000000000000000000000000000600052603260045260246000fd5b7f4e487b7100000000000000000000000000000000000000000000000000000000600052601160045260246000fd5b60006137af82612657565b91506137ba83612657565b92508282019050808211156137d2576137d1613775565b5b92915050565b6137e18161237e565b82525050565b60006020820190506137fc60008301846137d8565b92915050565b7f486173683a2076616c7565206d757374206265203634206279746573206c6f6e60008201527f6700000000000000000000000000000000000000000000000000000000000000602082015250565b600061385e602183612bfa565b915061386982613802565b604082019050919050565b6000602082019050818103600083015261388d81613851565b9050919050565b60008160f81b9050919050565b60006138ac82613894565b9050919050565b6138c46138bf8261354b565b6138a1565b82525050565b600081905092915050565b60006138e082612f7b565b6138ea81856138ca565b93506138fa818560208601612f97565b80840191505092915050565b600061391282896138b3565b60018201915061392282886138b3565b60018201915061393282876138b3565b60018201915061394282866138b3565b60018201915061395282856138b3565b60018201915061396282846138d5565b9150819050979650505050505050565b600061397e82846138d5565b915081905092915050565b60006020828403121561399f5761399e61220c565b5b60006139ad848285016132ff565b91505092915050565b7f506f7374636861696e3a20696e76616c696420626c6f636b636861696e20726960008201527f6400000000000000000000000000000000000000000000000000000000000000602082015250565b6000613a12602183612bfa565b9150613a1d826139b6565b604082019050919050565b60006020820190508181036000830152613a4181613a05565b9050919050565b7f506f7374636861696e3a20696e76616c6964206578747261206461746120726f60008201527f6f74000000000000000000000000000000000000000000000000000000000000602082015250565b6000613aa4602283612bfa565b9150613aaf82613a48565b604082019050919050565b60006020820190508181036000830152613ad381613a97565b9050919050565b7f506f7374636861696e3a20696e76616c6964206578747261206d65726b6c652060008201527f70726f6f66000000000000000000000000000000000000000000000000000000602082015250565b6000613b36602583612bfa565b9150613b4182613ada565b604082019050919050565b60006020820190508181036000830152613b6581613b29565b9050919050565b6000613b7782612657565b9150613b8283612657565b9250828202613b9081612657565b91508282048414831517613ba757613ba6613775565b5b5092915050565b6000604082019050613bc360008301856137d8565b613bd06020830184612334565b9392505050565b60006101008284031215613bee57613bed61264d565b5b613bf9610100612582565b90506000613c09848285016132ff565b6000830152506020613c1d848285016132ff565b6020830152506040613c31848285016132ff565b6040830152506060613c45848285016132ff565b6060830152506080613c59848285016132ea565b60808301525060a0613c6d848285016132ea565b60a08301525060c0613c81848285016132ff565b60c08301525060e0613c95848285016132ff565b60e08301525092915050565b60006101008284031215613cb857613cb761220c565b5b6000613cc684828501613bd7565b91505092915050565b6000819050919050565b613cea613ce5826122d1565b613ccf565b82525050565b6000613cfc82866138b3565b600182019150613d0c8285613cd9565b602082019150613d1c8284613cd9565b602082019150819050949350505050565b7f506f7374636861696e3a20696e76616c696420626c6f636b2068656164657200600082015250565b6000613d63601f83612bfa565b9150613d6e82613d2d565b602082019050919050565b60006020820190508181036000830152613d9281613d56565b9050919050565b6000613da482612657565b9150613daf83612657565b9250828203905081811115613dc757613dc6613775565b5b92915050565b6000613dd98284613cd9565b60208201915081905092915050565b6000613df48285613cd9565b602082019150613e048284613cd9565b6020820191508190509392505050565b6000613e2082896138b3565b600182019150613e3082886138b3565b600182019150613e4082876138b3565b600182019150613e5082866138b3565b600182019150613e6082856138b3565b600182019150613e708284613cd9565b602082019150819050979650505050505050565b6000613e8f8261354b565b9150613e9a8361354b565b9250828201905060ff811115613eb357613eb2613775565b5b92915050565b6000613ec48261354b565b9150613ecf8361354b565b9250828203905060ff811115613ee857613ee7613775565b5b92915050565b6000613ef98261354b565b915060ff8203613f0c57613f0b613775565b5b600182019050919050565b6000613f23828a6138b3565b600182019150613f3382896138b3565b600182019150613f4382886138b3565b600182019150613f5382876138b3565b600182019150613f6382866138b3565b600182019150613f7382856138b3565b600182019150613f8382846138d5565b91508190509897505050505050505056fea264697066735822122010a2f6e07eb8eb45cedd1cf856f355c3a2176ce4c0c57008a555ac33281d1c7864736f6c634300081c0033",
  "linkReferences": {},
  "deployedLinkReferences": {}
}