{
  "_format": "hh-sol-artifact-1",
  "contractName": "TicTacToe",
  "sourceName": "contracts/TicTacToe.sol",
  "abi": [
    {
      "inputs": [],
      "name": "AccessControlBadConfirmation",
      "type": "error"
    },
    {
      "inputs": [
        {
          "internalType": "address",
          "name": "account",
          "type": "address"
        },
        {
          "internalType": "bytes32",
          "name": "neededRole",
          "type": "bytes32"
        }
      ],
      "name": "AccessControlUnauthorizedAccount",
      "type": "error"
    },
    {
      "inputs": [],
      "name": "EnforcedPause",
      "type": "error"
    },
    {
      "inputs": [],
      "name": "ExpectedPause",
      "type": "error"
    },
    {
      "inputs": [],
      "name": "InvalidInitialization",
      "type": "error"
    },
    {
      "inputs": [],
      "name": "NotInitializing",
      "type": "error"
    },
    {
      "inputs": [],
      "name": "ReentrancyGuardReentrantCall",
      "type": "error"
    },
    {
      "anonymous": false,
      "inputs": [
        {
          "indexed": true,
          "internalType": "contract IValidator",
          "name": "_validator",
          "type": "address"
        }
      ],
      "name": "Initialize",
      "type": "event"
    },
    {
      "anonymous": false,
      "inputs": [
        {
          "indexed": false,
          "internalType": "uint64",
          "name": "version",
          "type": "uint64"
        }
      ],
      "name": "Initialized",
      "type": "event"
    },
    {
      "anonymous": false,
      "inputs": [
        {
          "indexed": false,
          "internalType": "address",
          "name": "account",
          "type": "address"
        }
      ],
      "name": "Paused",
      "type": "event"
    },
    {
      "anonymous": false,
      "inputs": [
        {
          "indexed": true,
          "internalType": "bytes32",
          "name": "role",
          "type": "bytes32"
        },
        {
          "indexed": true,
          "internalType": "bytes32",
          "name": "previousAdminRole",
          "type": "bytes32"
        },
        {
          "indexed": true,
          "internalType": "bytes32",
          "name": "newAdminRole",
          "type": "bytes32"
        }
      ],
      "name": "RoleAdminChanged",
      "type": "event"
    },
    {
      "anonymous": false,
      "inputs": [
        {
          "indexed": true,
          "internalType": "bytes32",
          "name": "role",
          "type": "bytes32"
        },
        {
          "indexed": true,
          "internalType": "address",
          "name": "account",
          "type": "address"
        },
        {
          "indexed": true,
          "internalType": "address",
          "name": "sender",
          "type": "address"
        }
      ],
      "name": "RoleGranted",
      "type": "event"
    },
    {
      "anonymous": false,
      "inputs": [
        {
          "indexed": true,
          "internalType": "bytes32",
          "name": "role",
          "type": "bytes32"
        },
        {
          "indexed": true,
          "internalType": "address",
          "name": "account",
          "type": "address"
        },
        {
          "indexed": true,
          "internalType": "address",
          "name": "sender",
          "type": "address"
        }
      ],
      "name": "RoleRevoked",
      "type": "event"
    },
    {
      "anonymous": false,
      "inputs": [
        {
          "indexed": false,
          "internalType": "bytes32",
          "name": "rid",
          "type": "bytes32"
        }
      ],
      "name": "SetBlockchainRid",
      "type": "event"
    },
    {
      "anonymous": false,
      "inputs": [
        {
          "indexed": false,
          "internalType": "address",
          "name": "account",
          "type": "address"
        }
      ],
      "name": "Unpaused",
      "type": "event"
    },
    {
      "inputs": [
        {
          "internalType": "bytes",
          "name": "_event",
          "type": "bytes"
        },
        {
          "components": [
            {
              "internalType": "bytes32",
              "name": "leaf",
              "type": "bytes32"
            },
            {
              "internalType": "uint256",
              "name": "position",
              "type": "uint256"
            },
            {
              "internalType": "bytes32[]",
              "name": "merkleProofs",
              "type": "bytes32[]"
            }
          ],
          "internalType": "struct Data.Proof",
          "name": "eventProof",
          "type": "tuple"
        },
        {
          "internalType": "bytes",
          "name": "blockHeader",
          "type": "bytes"
        },
        {
          "internalType": "bytes[]",
          "name": "sigs",
          "type": "bytes[]"
        },
        {
          "internalType": "address[]",
          "name": "signers",
          "type": "address[]"
        },
        {
          "components": [
            {
              "internalType": "bytes",
              "name": "leaf",
              "type": "bytes"
            },
            {
              "internalType": "bytes32",
              "name": "hashedLeaf",
              "type": "bytes32"
            },
            {
              "internalType": "uint256",
              "name": "position",
              "type": "uint256"
            },
            {
              "internalType": "bytes32",
              "name": "extraRoot",
              "type": "bytes32"
            },
            {
              "internalType": "bytes32[]",
              "name": "extraMerkleProofs",
              "type": "bytes32[]"
            }
          ],
          "internalType": "struct Data.ExtraProofData",
          "name": "extraProof",
          "type": "tuple"
        },
        {
          "internalType": "bytes",
          "name": "encodedData",
          "type": "bytes"
        }
      ],
      "name": "Claim",
      "outputs": [],
      "stateMutability": "nonpayable",
      "type": "function"
    },
    {
      "inputs": [],
      "name": "DEFAULT_ADMIN_ROLE",
      "outputs": [
        {
          "internalType": "bytes32",
          "name": "",
          "type": "bytes32"
        }
      ],
      "stateMutability": "view",
      "type": "function"
    },
    {
      "inputs": [],
      "name": "GAME_CONTROL",
      "outputs": [
        {
          "internalType": "bytes32",
          "name": "",
          "type": "bytes32"
        }
      ],
      "stateMutability": "view",
      "type": "function"
    },
    {
      "inputs": [],
      "name": "PAUSER_ROLE",
      "outputs": [
        {
          "internalType": "bytes32",
          "name": "",
          "type": "bytes32"
        }
      ],
      "stateMutability": "view",
      "type": "function"
    },
    {
      "inputs": [
        {
          "internalType": "address",
          "name": "pubkey",
          "type": "address"
        }
      ],
      "name": "getPoints",
      "outputs": [
        {
          "internalType": "uint256",
          "name": "",
          "type": "uint256"
        }
      ],
      "stateMutability": "view",
      "type": "function"
    },
    {
      "inputs": [
        {
          "internalType": "bytes32",
          "name": "role",
          "type": "bytes32"
        }
      ],
      "name": "getRoleAdmin",
      "outputs": [
        {
          "internalType": "bytes32",
          "name": "",
          "type": "bytes32"
        }
      ],
      "stateMutability": "view",
      "type": "function"
    },
    {
      "inputs": [
        {
          "internalType": "bytes32",
          "name": "role",
          "type": "bytes32"
        },
        {
          "internalType": "address",
          "name": "account",
          "type": "address"
        }
      ],
      "name": "grantRole",
      "outputs": [],
      "stateMutability": "nonpayable",
      "type": "function"
    },
    {
      "inputs": [
        {
          "internalType": "bytes32",
          "name": "role",
          "type": "bytes32"
        },
        {
          "internalType": "address",
          "name": "account",
          "type": "address"
        }
      ],
      "name": "hasRole",
      "outputs": [
        {
          "internalType": "bool",
          "name": "",
          "type": "bool"
        }
      ],
      "stateMutability": "view",
      "type": "function"
    },
    {
      "inputs": [
        {
          "internalType": "contract IValidator",
          "name": "_validator",
          "type": "address"
        },
        {
          "internalType": "bytes32",
          "name": "rid",
          "type": "bytes32"
        },
        {
          "internalType": "address",
          "name": "_defaultAdmin",
          "type": "address"
        }
      ],
      "name": "initialize",
      "outputs": [],
      "stateMutability": "nonpayable",
      "type": "function"
    },
    {
      "inputs": [],
      "name": "pause",
      "outputs": [],
      "stateMutability": "nonpayable",
      "type": "function"
    },
    {
      "inputs": [],
      "name": "paused",
      "outputs": [
        {
          "internalType": "bool",
          "name": "",
          "type": "bool"
        }
      ],
      "stateMutability": "view",
      "type": "function"
    },
    {
      "inputs": [
        {
          "internalType": "bytes32",
          "name": "role",
          "type": "bytes32"
        },
        {
          "internalType": "address",
          "name": "callerConfirmation",
          "type": "address"
        }
      ],
      "name": "renounceRole",
      "outputs": [],
      "stateMutability": "nonpayable",
      "type": "function"
    },
    {
      "inputs": [
        {
          "internalType": "bytes32",
          "name": "role",
          "type": "bytes32"
        },
        {
          "internalType": "address",
          "name": "account",
          "type": "address"
        }
      ],
      "name": "revokeRole",
      "outputs": [],
      "stateMutability": "nonpayable",
      "type": "function"
    },
    {
      "inputs": [
        {
          "internalType": "bytes32",
          "name": "rid",
          "type": "bytes32"
        }
      ],
      "name": "setBlockchainRid",
      "outputs": [],
      "stateMutability": "nonpayable",
      "type": "function"
    },
    {
      "inputs": [
        {
          "internalType": "bytes4",
          "name": "interfaceId",
          "type": "bytes4"
        }
      ],
      "name": "supportsInterface",
      "outputs": [
        {
          "internalType": "bool",
          "name": "",
          "type": "bool"
        }
      ],
      "stateMutability": "view",
      "type": "function"
    },
    {
      "inputs": [],
      "name": "unpause",
      "outputs": [],
      "stateMutability": "nonpayable",
      "type": "function"
    },
    {
      "inputs": [],
      "name": "validator",
      "outputs": [
        {
          "internalType": "contract IValidator",
          "name": "",
          "type": "address"
        }
      ],
      "stateMutability": "view",
      "type": "function"
    }
  ],
  "bytecode": "0x6080604052348015600f57600080fd5b50613d6e8061001f6000396000f3fe608060405234801561001057600080fd5b506004361061010b5760003560e01c80638456cb59116100a2578063d26b3e6e11610071578063d26b3e6e14610280578063d547741f1461029c578063e63ab1e9146102b8578063eac4024f146102d6578063ee204abb146102f25761010b565b80638456cb591461020a57806391d1485414610214578063a217fddf14610244578063adc24775146102625761010b565b80633a5381b5116100de5780633a5381b5146101a85780633f4ba83a146101c65780635c975abb146101d0578063633e0160146101ee5761010b565b806301ffc9a714610110578063248a9ca3146101405780632f2ff15d1461017057806336568abe1461018c575b600080fd5b61012a600480360381019061012591906121f8565b610322565b6040516101379190612240565b60405180910390f35b61015a60048036038101906101559190612291565b61039c565b60405161016791906122cd565b60405180910390f35b61018a60048036038101906101859190612346565b6103ca565b005b6101a660048036038101906101a19190612346565b6103ec565b005b6101b0610467565b6040516101bd91906123e5565b60405180910390f35b6101ce61048b565b005b6101d86104c0565b6040516101e59190612240565b60405180910390f35b61020860048036038101906102039190612291565b6104e5565b005b610212610596565b005b61022e60048036038101906102299190612346565b6105cb565b60405161023b9190612240565b60405180910390f35b61024c610644565b60405161025991906122cd565b60405180910390f35b61026a61064b565b60405161027791906122cd565b60405180910390f35b61029a6004803603810190610295919061243e565b61066f565b005b6102b660048036038101906102b19190612346565b61096c565b005b6102c061098e565b6040516102cd91906122cd565b60405180910390f35b6102f060048036038101906102eb91906129c7565b6109b2565b005b61030c60048036038101906103079190612b2d565b610de6565b6040516103199190612b69565b60405180910390f35b60007f7965db0b000000000000000000000000000000000000000000000000000000007bffffffffffffffffffffffffffffffffffffffffffffffffffffffff1916827bffffffffffffffffffffffffffffffffffffffffffffffffffffffff19161480610395575061039482610e2f565b5b9050919050565b6000806103a7610e99565b905080600001600084815260200190815260200160002060010154915050919050565b6103d38261039c565b6103dc81610ec1565b6103e68383610ed5565b50505050565b6103f4610fd6565b73ffffffffffffffffffffffffffffffffffffffff168173ffffffffffffffffffffffffffffffffffffffff1614610458576040517f6697b23200000000000000000000000000000000000000000000000000000000815260040160405180910390fd5b6104628282610fde565b505050565b60008054906101000a900473ffffffffffffffffffffffffffffffffffffffff1681565b7f65d7a28e3265b37a6474929f336521b332c1681b933f6cb9f3376673440d862a6104b581610ec1565b6104bd6110e0565b50565b6000806104cb611152565b90508060000160009054906101000a900460ff1691505090565b7f52c6173eca90eb88e8418a46ffb14c4cc3f3d5f027d258af306f3361d6a6a0b661050f81610ec1565b6000801b8203610554576040517f08c379a000000000000000000000000000000000000000000000000000000000815260040161054b90612c07565b60405180910390fd5b816001819055507fc4597ce7b4ac4379ee010b7c4818ac208506ea6f6170d4ed5f6421246ca5ff808260405161058a91906122cd565b60405180910390a15050565b7f65d7a28e3265b37a6474929f336521b332c1681b933f6cb9f3376673440d862a6105c081610ec1565b6105c861117a565b50565b6000806105d6610e99565b905080600001600085815260200190815260200160002060000160008473ffffffffffffffffffffffffffffffffffffffff1673ffffffffffffffffffffffffffffffffffffffff16815260200190815260200160002060009054906101000a900460ff1691505092915050565b6000801b81565b7f52c6173eca90eb88e8418a46ffb14c4cc3f3d5f027d258af306f3361d6a6a0b681565b60006106796111ec565b905060008160000160089054906101000a900460ff1615905060008260000160009054906101000a900467ffffffffffffffff1690506000808267ffffffffffffffff161480156106c75750825b9050600060018367ffffffffffffffff161480156106fc575060003073ffffffffffffffffffffffffffffffffffffffff163b145b90508115801561070a575080155b15610741576040517ff92ee8a900000000000000000000000000000000000000000000000000000000815260040160405180910390fd5b60018560000160006101000a81548167ffffffffffffffff021916908367ffffffffffffffff16021790555083156107915760018560000160086101000a81548160ff0219169083151502179055505b600073ffffffffffffffffffffffffffffffffffffffff168873ffffffffffffffffffffffffffffffffffffffff1603610800576040517f08c379a00000000000000000000000000000000000000000000000000000000081526004016107f790612c99565b60405180910390fd5b610808611214565b61081061121e565b610818611230565b6108256000801b87610ed5565b506108507f52c6173eca90eb88e8418a46ffb14c4cc3f3d5f027d258af306f3361d6a6a0b687610ed5565b5061087b7f65d7a28e3265b37a6474929f336521b332c1681b933f6cb9f3376673440d862a87610ed5565b50876000806101000a81548173ffffffffffffffffffffffffffffffffffffffff021916908373ffffffffffffffffffffffffffffffffffffffff160217905550866001819055508773ffffffffffffffffffffffffffffffffffffffff167f36b1453565f45af7b509b59d5e2eac8f1948ea9e3e193db6663b4101afb6382c60405160405180910390a283156109625760008560000160086101000a81548160ff0219169083151502179055507fc7f505b2f371ae2175ee4913f4499e1f2633a7b5936321eed1cdaeb6115181d260016040516109599190612d08565b60405180910390a15b5050505050505050565b6109758261039c565b61097e81610ec1565b6109888383610fde565b50505050565b7f65d7a28e3265b37a6474929f336521b332c1681b933f6cb9f3376673440d862a81565b6109ba611242565b6000801b60015403610a01576040517f08c379a00000000000000000000000000000000000000000000000000000000081526004016109f890612d95565b60405180910390fd5b60001515600260008860000151815260200190815260200160002060009054906101000a900460ff16151514610a6c576040517f08c379a0000000000000000000000000000000000000000000000000000000008152600401610a6390612e27565b60405180910390fd5b8160200151610a7e8360000151611283565b14610abe576040517f08c379a0000000000000000000000000000000000000000000000000000000008152600401610ab590612eb9565b60405180910390fd5b6000610acd600154878561134e565b9150506000610ae18460000151600061146b565b905060008054906101000a900473ffffffffffffffffffffffffffffffffffffffff1673ffffffffffffffffffffffffffffffffffffffff16638e1dbab88388886040518463ffffffff1660e01b8152600401610b40939291906130d8565b602060405180830381865afa158015610b5d573d6000803e3d6000fd5b505050506040513d601f19601f82011682018060405250810190610b819190613149565b610bc0576040517f08c379a0000000000000000000000000000000000000000000000000000000008152600401610bb7906131e8565b60405180910390fd5b610bd8886040015189600001518a60200151846114f6565b610c17576040517f08c379a0000000000000000000000000000000000000000000000000000000008152600401610c0e90613254565b60405180910390fd5b600089806020019051810190610c2d91906132ee565b905088600001518a8051906020012014610c7c576040517f08c379a0000000000000000000000000000000000000000000000000000000008152600401610c7390613367565b60405180910390fd5b6001600260008b60000151815260200190815260200160002060006101000a81548160ff0219169083151502179055508060200151848051906020012014610cf9576040517f08c379a0000000000000000000000000000000000000000000000000000000008152600401610cf0906133d3565b60405180910390fd5b60008085806020019051810190610d109190613431565b915091503373ffffffffffffffffffffffffffffffffffffffff168273ffffffffffffffffffffffffffffffffffffffff1614610d82576040517f08c379a0000000000000000000000000000000000000000000000000000000008152600401610d79906134bd565b60405180910390fd5b80600360008473ffffffffffffffffffffffffffffffffffffffff1673ffffffffffffffffffffffffffffffffffffffff1681526020019081526020016000206000828254610dd1919061350c565b92505081905550505050505050505050505050565b6000600360008373ffffffffffffffffffffffffffffffffffffffff1673ffffffffffffffffffffffffffffffffffffffff168152602001908152602001600020549050919050565b60007f01ffc9a7000000000000000000000000000000000000000000000000000000007bffffffffffffffffffffffffffffffffffffffffffffffffffffffff1916827bffffffffffffffffffffffffffffffffffffffffffffffffffffffff1916149050919050565b60007f02dd7bc7dec4dceedda775e58dd541e08a116c6c53815c0bd028192f7b626800905090565b610ed281610ecd610fd6565b6115b0565b50565b600080610ee0610e99565b9050610eec84846105cb565b610fca57600181600001600086815260200190815260200160002060000160008573ffffffffffffffffffffffffffffffffffffffff1673ffffffffffffffffffffffffffffffffffffffff16815260200190815260200160002060006101000a81548160ff021916908315150217905550610f66610fd6565b73ffffffffffffffffffffffffffffffffffffffff168373ffffffffffffffffffffffffffffffffffffffff16857f2f8788117e7eff1d82e926ec794901d17c78024a50270940304540a733656f0d60405160405180910390a46001915050610fd0565b60009150505b92915050565b600033905090565b600080610fe9610e99565b9050610ff584846105cb565b156110d457600081600001600086815260200190815260200160002060000160008573ffffffffffffffffffffffffffffffffffffffff1673ffffffffffffffffffffffffffffffffffffffff16815260200190815260200160002060006101000a81548160ff021916908315150217905550611070610fd6565b73ffffffffffffffffffffffffffffffffffffffff168373ffffffffffffffffffffffffffffffffffffffff16857ff6391f5c32d9c69d2a47ea670b442974b53935d1edc7fd64eb21e047a839171b60405160405180910390a460019150506110da565b60009150505b92915050565b6110e8611601565b60006110f2611152565b905060008160000160006101000a81548160ff0219169083151502179055507f5db9ee0a495bf2e6ff9c91a7834c1ba4fdd244a5e8aa4e537bd38aeae4b073aa61113a610fd6565b604051611147919061354f565b60405180910390a150565b60007fcd5ed15c6e187e77e9aee88184c21f4f2182ab5827cb3b7e07fbedcd63f03300905090565b611182611242565b600061118c611152565b905060018160000160006101000a81548160ff0219169083151502179055507f62e78cea01bee320cd4e420270b5ea74000d11b0c9f74754ebdbfc544b05a2586111d4610fd6565b6040516111e1919061354f565b60405180910390a150565b60007ff0c57e16840df040f15088dc2f81fe391c3923bec73e23a9662efc9c229c6a00905090565b61121c611641565b565b611226611641565b61122e611681565b565b611238611641565b6112406116b5565b565b61124a6104c0565b15611281576040517fd93c066500000000000000000000000000000000000000000000000000000000815260040160405180910390fd5b565b600060408251146112c9576040517f08c379a00000000000000000000000000000000000000000000000000000000081526004016112c0906135dc565b60405180910390fd5b6002600160a1604260046040876040516020016112eb9695949392919061367b565b60405160208183030381529060405260405161130791906136e7565b602060405180830381855afa158015611324573d6000803e3d6000fd5b5050506040513d601f19601f8201168201806040525081019061134791906136fe565b9050919050565b600080600061135c856116d6565b9050806000015186146113a4576040517f08c379a000000000000000000000000000000000000000000000000000000000815260040161139b9061379d565b60405180910390fd5b8060e001518460600151146113ee576040517f08c379a00000000000000000000000000000000000000000000000000000000081526004016113e59061382f565b60405180910390fd5b6114158460200151856040015186606001518760800151611a57909392919063ffffffff16565b611454576040517f08c379a000000000000000000000000000000000000000000000000000000000815260040161144b906138c1565b60405180910390fd5b8060a0015181602001519250925050935093915050565b60008060005b60208110156114eb5760088161148791906138e1565b60ff60f81b868387611499919061350c565b815181106114aa576114a9613923565b5b602001015160f81c60f81b167effffffffffffffffffffffffffffffffffffffffffffffffffffffffffffff1916901c821791508080600101915050611471565b508091505092915050565b60008060001b84148061150e575084516001901b8310155b1561151c57600090506115a8565b600084905060005b86518110156115a0576000816001901b861690506000810361156b576115648389848151811061155757611556613923565b5b6020026020010151611d22565b9250611592565b61158f88838151811061158157611580613923565b5b602002602001015184611d22565b92505b508080600101915050611524565b508281149150505b949350505050565b6115ba82826105cb565b6115fd5780826040517fe2517d3f0000000000000000000000000000000000000000000000000000000081526004016115f4929190613952565b60405180910390fd5b5050565b6116096104c0565b61163f576040517f8dfc202b00000000000000000000000000000000000000000000000000000000815260040160405180910390fd5b565b611649611dea565b61167f576040517fd7e6bcf800000000000000000000000000000000000000000000000000000000815260040160405180910390fd5b565b611689611641565b6000611693611152565b905060008160000160006101000a81548160ff02191690831515021790555050565b6116bd611641565b60006116c7611e0a565b90506001816000018190555050565b6116de612135565b6000828060200190518101906116f49190613a45565b90506000600260006117098460000151611e32565b6117168560400151611e32565b60405160200161172893929190613a94565b60405160208183030381529060405260405161174491906136e7565b602060405180830381855afa158015611761573d6000803e3d6000fd5b5050506040513d601f19601f8201168201806040525081019061178491906136fe565b9050600060026000846060015161179e8660800151611eb9565b6040516020016117b093929190613a94565b6040516020818303038152906040526040516117cc91906136e7565b602060405180830381855afa1580156117e9573d6000803e3d6000fd5b5050506040513d601f19601f8201168201806040525081019061180c91906136fe565b90506000600260006118218660a00151611eb9565b8660c0015160405160200161183893929190613a94565b60405160208183030381529060405260405161185491906136e7565b602060405180830381855afa158015611871573d6000803e3d6000fd5b5050506040513d601f19601f8201168201806040525081019061189491906136fe565b905060006002600085856040516020016118b093929190613a94565b6040516020818303038152906040526040516118cc91906136e7565b602060405180830381855afa1580156118e9573d6000803e3d6000fd5b5050506040513d601f19601f8201168201806040525081019061190c91906136fe565b9050600060026000848860e0015160405160200161192c93929190613a94565b60405160208183030381529060405260405161194891906136e7565b602060405180830381855afa158015611965573d6000803e3d6000fd5b5050506040513d601f19601f8201168201806040525081019061198891906136fe565b905060006002600784846040516020016119a493929190613a94565b6040516020818303038152906040526040516119c091906136e7565b602060405180830381855afa1580156119dd573d6000803e3d6000fd5b5050506040513d601f19601f82011682018060405250810190611a0091906136fe565b905086602001518114611a48576040517f08c379a0000000000000000000000000000000000000000000000000000000008152600401611a3f90613b1d565b60405180910390fd5b86975050505050505050919050565b600084516001901b8310611a6e5760009050611d1a565b6000849050600060018751611a839190613b3d565b905060005b81811015611bd7576000816001901b8716905060008103611b385760026000858b8581518110611abb57611aba613923565b5b6020026020010151604051602001611ad593929190613a94565b604051602081830303815290604052604051611af191906136e7565b602060405180830381855afa158015611b0e573d6000803e3d6000fd5b5050506040513d601f19601f82011682018060405250810190611b3191906136fe565b9350611bc9565b600260008a8481518110611b4f57611b4e613923565b5b602002602001015186604051602001611b6a93929190613a94565b604051602081830303815290604052604051611b8691906136e7565b602060405180830381855afa158015611ba3573d6000803e3d6000fd5b5050506040513d601f19601f82011682018060405250810190611bc691906136fe565b93505b508080600101915050611a88565b506000816001901b8616905060008103611c805760026008848a8581518110611c0357611c02613923565b5b6020026020010151604051602001611c1d93929190613a94565b604051602081830303815290604052604051611c3991906136e7565b602060405180830381855afa158015611c56573d6000803e3d6000fd5b5050506040513d601f19601f82011682018060405250810190611c7991906136fe565b9250611d11565b60026008898481518110611c9757611c96613923565b5b602002602001015185604051602001611cb293929190613a94565b604051602081830303815290604052604051611cce91906136e7565b602060405180830381855afa158015611ceb573d6000803e3d6000fd5b5050506040513d601f19601f82011682018060405250810190611d0e91906136fe565b92505b84831493505050505b949350505050565b60008060001b83148015611d3857506000801b82145b15611d48576000801b9050611de4565b6000801b8303611d805781604051602001611d639190613b71565b604051602081830303815290604052805190602001209050611de4565b6000801b8203611db85782604051602001611d9b9190613b71565b604051602081830303815290604052805190602001209050611de4565b8282604051602001611dcb929190613b8c565b6040516020818303038152906040528051906020012090505b92915050565b6000611df46111ec565b60000160089054906101000a900460ff16905090565b60007f9b779b17422d0df92223018b32b4d1fa46e071723d6817e2486d003becc55f00905090565b60006002600160a160226004602087604051602001611e5696959493929190613bb8565b604051602081830303815290604052604051611e7291906136e7565b602060405180830381855afa158015611e8f573d6000803e3d6000fd5b5050506040513d601f19601f82011682018060405250810190611eb291906136fe565b9050919050565b600080600190506000600884901c90505b6000811115611eee57600182611ee09190613c28565b9150600881901c9050611eca565b60008260ff1667ffffffffffffffff811115611f0d57611f0c6124ac565b5b6040519080825280601f01601f191660200182016040528015611f3f5781602001600182028036833780820191505090505b5090508491506000600190505b8360ff168160ff1611611fd057600060ff841690508060f81b838387611f729190613c5d565b60ff1681518110611f8657611f85613923565b5b60200101907effffffffffffffffffffffffffffffffffffffffffffffffffffffffffffff1916908160001a905350600884901c9350508080611fc890613c92565b915050611f4c565b506000608082600081518110611fe957611fe8613923565b5b602001015160f81c60f81b60f81c1660ff1611156120a2576002600160a36003866120149190613c28565b60026001886120239190613c28565b60008760405160200161203c9796959493929190613cbb565b60405160208183030381529060405260405161205891906136e7565b602060405180830381855afa158015612075573d6000803e3d6000fd5b5050506040513d601f19601f8201168201806040525081019061209891906136fe565b9350505050612130565b6002600160a36002866120b59190613c28565b600287866040516020016120ce9695949392919061367b565b6040516020818303038152906040526040516120ea91906136e7565b602060405180830381855afa158015612107573d6000803e3d6000fd5b5050506040513d601f19601f8201168201806040525081019061212a91906136fe565b93505050505b919050565b60405180610100016040528060008019168152602001600080191681526020016000801916815260200160008019168152602001600081526020016000815260200160008019168152602001600080191681525090565b6000604051905090565b600080fd5b600080fd5b60007fffffffff0000000000000000000000000000000000000000000000000000000082169050919050565b6121d5816121a0565b81146121e057600080fd5b50565b6000813590506121f2816121cc565b92915050565b60006020828403121561220e5761220d612196565b5b600061221c848285016121e3565b91505092915050565b60008115159050919050565b61223a81612225565b82525050565b60006020820190506122556000830184612231565b92915050565b6000819050919050565b61226e8161225b565b811461227957600080fd5b50565b60008135905061228b81612265565b92915050565b6000602082840312156122a7576122a6612196565b5b60006122b58482850161227c565b91505092915050565b6122c78161225b565b82525050565b60006020820190506122e260008301846122be565b92915050565b600073ffffffffffffffffffffffffffffffffffffffff82169050919050565b6000612313826122e8565b9050919050565b61232381612308565b811461232e57600080fd5b50565b6000813590506123408161231a565b92915050565b6000806040838503121561235d5761235c612196565b5b600061236b8582860161227c565b925050602061237c85828601612331565b9150509250929050565b6000819050919050565b60006123ab6123a66123a1846122e8565b612386565b6122e8565b9050919050565b60006123bd82612390565b9050919050565b60006123cf826123b2565b9050919050565b6123df816123c4565b82525050565b60006020820190506123fa60008301846123d6565b92915050565b600061240b82612308565b9050919050565b61241b81612400565b811461242657600080fd5b50565b60008135905061243881612412565b92915050565b60008060006060848603121561245757612456612196565b5b600061246586828701612429565b93505060206124768682870161227c565b925050604061248786828701612331565b9150509250925092565b600080fd5b600080fd5b6000601f19601f8301169050919050565b7f4e487b7100000000000000000000000000000000000000000000000000000000600052604160045260246000fd5b6124e48261249b565b810181811067ffffffffffffffff82111715612503576125026124ac565b5b80604052505050565b600061251661218c565b905061252282826124db565b919050565b600067ffffffffffffffff821115612542576125416124ac565b5b61254b8261249b565b9050602081019050919050565b82818337600083830152505050565b600061257a61257584612527565b61250c565b90508281526020810184848401111561259657612595612496565b5b6125a1848285612558565b509392505050565b600082601f8301126125be576125bd612491565b5b81356125ce848260208601612567565b91505092915050565b600080fd5b600080fd5b6000819050919050565b6125f4816125e1565b81146125ff57600080fd5b50565b600081359050612611816125eb565b92915050565b600067ffffffffffffffff821115612632576126316124ac565b5b602082029050602081019050919050565b600080fd5b600061265b61265684612617565b61250c565b9050808382526020820190506020840283018581111561267e5761267d612643565b5b835b818110156126a75780612693888261227c565b845260208401935050602081019050612680565b5050509392505050565b600082601f8301126126c6576126c5612491565b5b81356126d6848260208601612648565b91505092915050565b6000606082840312156126f5576126f46125d7565b5b6126ff606061250c565b9050600061270f8482850161227c565b600083015250602061272384828501612602565b602083015250604082013567ffffffffffffffff811115612747576127466125dc565b5b612753848285016126b1565b60408301525092915050565b600067ffffffffffffffff82111561277a576127796124ac565b5b602082029050602081019050919050565b600061279e6127998461275f565b61250c565b905080838252602082019050602084028301858111156127c1576127c0612643565b5b835b8181101561280857803567ffffffffffffffff8111156127e6576127e5612491565b5b8086016127f389826125a9565b855260208501945050506020810190506127c3565b5050509392505050565b600082601f83011261282757612826612491565b5b813561283784826020860161278b565b91505092915050565b600067ffffffffffffffff82111561285b5761285a6124ac565b5b602082029050602081019050919050565b600061287f61287a84612840565b61250c565b905080838252602082019050602084028301858111156128a2576128a1612643565b5b835b818110156128cb57806128b78882612331565b8452602084019350506020810190506128a4565b5050509392505050565b600082601f8301126128ea576128e9612491565b5b81356128fa84826020860161286c565b91505092915050565b600060a08284031215612919576129186125d7565b5b61292360a061250c565b9050600082013567ffffffffffffffff811115612943576129426125dc565b5b61294f848285016125a9565b60008301525060206129638482850161227c565b602083015250604061297784828501612602565b604083015250606061298b8482850161227c565b606083015250608082013567ffffffffffffffff8111156129af576129ae6125dc565b5b6129bb848285016126b1565b60808301525092915050565b600080600080600080600060e0888a0312156129e6576129e5612196565b5b600088013567ffffffffffffffff811115612a0457612a0361219b565b5b612a108a828b016125a9565b975050602088013567ffffffffffffffff811115612a3157612a3061219b565b5b612a3d8a828b016126df565b965050604088013567ffffffffffffffff811115612a5e57612a5d61219b565b5b612a6a8a828b016125a9565b955050606088013567ffffffffffffffff811115612a8b57612a8a61219b565b5b612a978a828b01612812565b945050608088013567ffffffffffffffff811115612ab857612ab761219b565b5b612ac48a828b016128d5565b93505060a088013567ffffffffffffffff811115612ae557612ae461219b565b5b612af18a828b01612903565b92505060c088013567ffffffffffffffff811115612b1257612b1161219b565b5b612b1e8a828b016125a9565b91505092959891949750929550565b600060208284031215612b4357612b42612196565b5b6000612b5184828501612331565b91505092915050565b612b63816125e1565b82525050565b6000602082019050612b7e6000830184612b5a565b92915050565b600082825260208201905092915050565b7f546963546163546f653a20626c6f636b636861696e2072696420697320696e7660008201527f616c696400000000000000000000000000000000000000000000000000000000602082015250565b6000612bf1602483612b84565b9150612bfc82612b95565b604082019050919050565b60006020820190508181036000830152612c2081612be4565b9050919050565b7f546963546163546f653a2076616c696461746f7220616464726573732069732060008201527f696e76616c696400000000000000000000000000000000000000000000000000602082015250565b6000612c83602783612b84565b9150612c8e82612c27565b604082019050919050565b60006020820190508181036000830152612cb281612c76565b9050919050565b6000819050919050565b600067ffffffffffffffff82169050919050565b6000612cf2612ced612ce884612cb9565b612386565b612cc3565b9050919050565b612d0281612cd7565b82525050565b6000602082019050612d1d6000830184612cf9565b92915050565b7f546963546163546f653a20626c6f636b636861696e20726964206973206e6f7460008201527f2073657400000000000000000000000000000000000000000000000000000000602082015250565b6000612d7f602483612b84565b9150612d8a82612d23565b604082019050919050565b60006020820190508181036000830152612dae81612d72565b9050919050565b7f546963546163546f653a206576656e7420686173682077617320616c7265616460008201527f7920757365640000000000000000000000000000000000000000000000000000602082015250565b6000612e11602683612b84565b9150612e1c82612db5565b604082019050919050565b60006020820190508181036000830152612e4081612e04565b9050919050565b7f506f7374636861696e3a20696e76616c6964204549462065787472612064617460008201527f6100000000000000000000000000000000000000000000000000000000000000602082015250565b6000612ea3602183612b84565b9150612eae82612e47565b604082019050919050565b60006020820190508181036000830152612ed281612e96565b9050919050565b600081519050919050565b600082825260208201905092915050565b6000819050602082019050919050565b600081519050919050565b600082825260208201905092915050565b60005b83811015612f3f578082015181840152602081019050612f24565b60008484015250505050565b6000612f5682612f05565b612f608185612f10565b9350612f70818560208601612f21565b612f798161249b565b840191505092915050565b6000612f908383612f4b565b905092915050565b6000602082019050919050565b6000612fb082612ed9565b612fba8185612ee4565b935083602082028501612fcc85612ef5565b8060005b858110156130085784840389528151612fe98582612f84565b9450612ff483612f98565b925060208a01995050600181019050612fd0565b50829750879550505050505092915050565b600081519050919050565b600082825260208201905092915050565b6000819050602082019050919050565b61304f81612308565b82525050565b60006130618383613046565b60208301905092915050565b6000602082019050919050565b60006130858261301a565b61308f8185613025565b935061309a83613036565b8060005b838110156130cb5781516130b28882613055565b97506130bd8361306d565b92505060018101905061309e565b5085935050505092915050565b60006060820190506130ed60008301866122be565b81810360208301526130ff8185612fa5565b90508181036040830152613113818461307a565b9050949350505050565b61312681612225565b811461313157600080fd5b50565b6000815190506131438161311d565b92915050565b60006020828403121561315f5761315e612196565b5b600061316d84828501613134565b91505092915050565b7f546963546163546f653a20626c6f636b207369676e617475726520697320696e60008201527f76616c6964000000000000000000000000000000000000000000000000000000602082015250565b60006131d2602583612b84565b91506131dd82613176565b604082019050919050565b60006020820190508181036000830152613201816131c5565b9050919050565b7f546963546163546f653a20696e76616c6964206d65726b6c652070726f6f6600600082015250565b600061323e601f83612b84565b915061324982613208565b602082019050919050565b6000602082019050818103600083015261326d81613231565b9050919050565b600081519050613283816125eb565b92915050565b60008151905061329881612265565b92915050565b6000604082840312156132b4576132b36125d7565b5b6132be604061250c565b905060006132ce84828501613274565b60008301525060206132e284828501613289565b60208301525092915050565b60006040828403121561330457613303612196565b5b60006133128482850161329e565b91505092915050565b7f506f7374636861696e3a20696e76616c6964206576656e740000000000000000600082015250565b6000613351601883612b84565b915061335c8261331b565b602082019050919050565b6000602082019050818103600083015261338081613344565b9050919050565b7f546963546163546f653a20696e76616c69642072657761726420686173680000600082015250565b60006133bd601e83612b84565b91506133c882613387565b602082019050919050565b600060208201905081810360008301526133ec816133b0565b9050919050565b60006133fe826122e8565b9050919050565b61340e816133f3565b811461341957600080fd5b50565b60008151905061342b81613405565b92915050565b6000806040838503121561344857613447612196565b5b60006134568582860161341c565b925050602061346785828601613274565b9150509250929050565b7f546963546163546f653a207075626b657920697320696e76616c696400000000600082015250565b60006134a7601c83612b84565b91506134b282613471565b602082019050919050565b600060208201905081810360008301526134d68161349a565b9050919050565b7f4e487b7100000000000000000000000000000000000000000000000000000000600052601160045260246000fd5b6000613517826125e1565b9150613522836125e1565b925082820190508082111561353a576135396134dd565b5b92915050565b61354981612308565b82525050565b60006020820190506135646000830184613540565b92915050565b7f486173683a2076616c7565206d757374206265203634206279746573206c6f6e60008201527f6700000000000000000000000000000000000000000000000000000000000000602082015250565b60006135c6602183612b84565b91506135d18261356a565b604082019050919050565b600060208201905081810360008301526135f5816135b9565b9050919050565b600060ff82169050919050565b60008160f81b9050919050565b600061362182613609565b9050919050565b613639613634826135fc565b613616565b82525050565b600081905092915050565b600061365582612f05565b61365f818561363f565b935061366f818560208601612f21565b80840191505092915050565b60006136878289613628565b6001820191506136978288613628565b6001820191506136a78287613628565b6001820191506136b78286613628565b6001820191506136c78285613628565b6001820191506136d7828461364a565b9150819050979650505050505050565b60006136f3828461364a565b915081905092915050565b60006020828403121561371457613713612196565b5b600061372284828501613289565b91505092915050565b7f506f7374636861696e3a20696e76616c696420626c6f636b636861696e20726960008201527f6400000000000000000000000000000000000000000000000000000000000000602082015250565b6000613787602183612b84565b91506137928261372b565b604082019050919050565b600060208201905081810360008301526137b68161377a565b9050919050565b7f506f7374636861696e3a20696e76616c6964206578747261206461746120726f60008201527f6f74000000000000000000000000000000000000000000000000000000000000602082015250565b6000613819602283612b84565b9150613824826137bd565b604082019050919050565b600060208201905081810360008301526138488161380c565b9050919050565b7f506f7374636861696e3a20696e76616c6964206578747261206d65726b6c652060008201527f70726f6f66000000000000000000000000000000000000000000000000000000602082015250565b60006138ab602583612b84565b91506138b68261384f565b604082019050919050565b600060208201905081810360008301526138da8161389e565b9050919050565b60006138ec826125e1565b91506138f7836125e1565b9250828202613905816125e1565b9150828204841483151761391c5761391b6134dd565b5b5092915050565b7f4e487b7100000000000000000000000000000000000000000000000000000000600052603260045260246000fd5b60006040820190506139676000830185613540565b61397460208301846122be565b9392505050565b60006101008284031215613992576139916125d7565b5b61399d61010061250c565b905060006139ad84828501613289565b60008301525060206139c184828501613289565b60208301525060406139d584828501613289565b60408301525060606139e984828501613289565b60608301525060806139fd84828501613274565b60808301525060a0613a1184828501613274565b60a08301525060c0613a2584828501613289565b60c08301525060e0613a3984828501613289565b60e08301525092915050565b60006101008284031215613a5c57613a5b612196565b5b6000613a6a8482850161397b565b91505092915050565b6000819050919050565b613a8e613a898261225b565b613a73565b82525050565b6000613aa08286613628565b600182019150613ab08285613a7d565b602082019150613ac08284613a7d565b602082019150819050949350505050565b7f506f7374636861696e3a20696e76616c696420626c6f636b2068656164657200600082015250565b6000613b07601f83612b84565b9150613b1282613ad1565b602082019050919050565b60006020820190508181036000830152613b3681613afa565b9050919050565b6000613b48826125e1565b9150613b53836125e1565b9250828203905081811115613b6b57613b6a6134dd565b5b92915050565b6000613b7d8284613a7d565b60208201915081905092915050565b6000613b988285613a7d565b602082019150613ba88284613a7d565b6020820191508190509392505050565b6000613bc48289613628565b600182019150613bd48288613628565b600182019150613be48287613628565b600182019150613bf48286613628565b600182019150613c048285613628565b600182019150613c148284613a7d565b602082019150819050979650505050505050565b6000613c33826135fc565b9150613c3e836135fc565b9250828201905060ff811115613c5757613c566134dd565b5b92915050565b6000613c68826135fc565b9150613c73836135fc565b9250828203905060ff811115613c8c57613c8b6134dd565b5b92915050565b6000613c9d826135fc565b915060ff8203613cb057613caf6134dd565b5b600182019050919050565b6000613cc7828a613628565b600182019150613cd78289613628565b600182019150613ce78288613628565b600182019150613cf78287613628565b600182019150613d078286613628565b600182019150613d178285613628565b600182019150613d27828461364a565b91508190509897505050505050505056fea26469706673582212202c263ffdabb35c05485030eb0252a191b33435b1778e3bfd48e792e3828b3d5264736f6c634300081c0033",
  "linkReferences": {},
  "deployedLinkReferences": {}
}