{
  "_format": "hh-sol-artifact-1",
  "contractName": "TicTacToe",
  "sourceName": "contracts/TicTacToe.sol",
  "abi": [
    {
      "inputs": [],
      "name": "AccessControlBadConfirmation",
      "type": "error"
    },
    {
      "inputs": [
        {
          "internalType": "address",
          "name": "account",
          "type": "address"
        },
        {
          "internalType": "bytes32",
          "name": "neededRole",
          "type": "bytes32"
        }
      ],
      "name": "AccessControlUnauthorizedAccount",
      "type": "error"
    },
    {
      "inputs": [],
      "name": "EnforcedPause",
      "type": "error"
    },
    {
      "inputs": [],
      "name": "ExpectedPause",
      "type": "error"
    },
    {
      "inputs": [],
      "name": "InvalidInitialization",
      "type": "error"
    },
    {
      "inputs": [],
      "name": "NotInitializing",
      "type": "error"
    },
    {
      "inputs": [],
      "name": "ReentrancyGuardReentrantCall",
      "type": "error"
    },
    {
      "anonymous": false,
      "inputs": [
        {
          "indexed": false,
          "internalType": "uint64",
          "name": "version",
          "type": "uint64"
        }
      ],
      "name": "Initialized",
      "type": "event"
    },
    {
      "anonymous": false,
      "inputs": [
        {
          "indexed": false,
          "internalType": "address",
          "name": "account",
          "type": "address"
        }
      ],
      "name": "Paused",
      "type": "event"
    },
    {
      "anonymous": false,
      "inputs": [
        {
          "indexed": false,
          "internalType": "bytes32",
          "name": "eventHash",
          "type": "bytes32"
        },
        {
          "indexed": true,
          "internalType": "address",
          "name": "claimer",
          "type": "address"
        }
      ],
      "name": "RewardClaimed",
      "type": "event"
    },
    {
      "anonymous": false,
      "inputs": [
        {
          "indexed": true,
          "internalType": "bytes32",
          "name": "role",
          "type": "bytes32"
        },
        {
          "indexed": true,
          "internalType": "bytes32",
          "name": "previousAdminRole",
          "type": "bytes32"
        },
        {
          "indexed": true,
          "internalType": "bytes32",
          "name": "newAdminRole",
          "type": "bytes32"
        }
      ],
      "name": "RoleAdminChanged",
      "type": "event"
    },
    {
      "anonymous": false,
      "inputs": [
        {
          "indexed": true,
          "internalType": "bytes32",
          "name": "role",
          "type": "bytes32"
        },
        {
          "indexed": true,
          "internalType": "address",
          "name": "account",
          "type": "address"
        },
        {
          "indexed": true,
          "internalType": "address",
          "name": "sender",
          "type": "address"
        }
      ],
      "name": "RoleGranted",
      "type": "event"
    },
    {
      "anonymous": false,
      "inputs": [
        {
          "indexed": true,
          "internalType": "bytes32",
          "name": "role",
          "type": "bytes32"
        },
        {
          "indexed": true,
          "internalType": "address",
          "name": "account",
          "type": "address"
        },
        {
          "indexed": true,
          "internalType": "address",
          "name": "sender",
          "type": "address"
        }
      ],
      "name": "RoleRevoked",
      "type": "event"
    },
    {
      "anonymous": false,
      "inputs": [
        {
          "indexed": false,
          "internalType": "address",
          "name": "account",
          "type": "address"
        }
      ],
      "name": "Unpaused",
      "type": "event"
    },
    {
      "inputs": [],
      "name": "DEFAULT_ADMIN_ROLE",
      "outputs": [
        {
          "internalType": "bytes32",
          "name": "",
          "type": "bytes32"
        }
      ],
      "stateMutability": "view",
      "type": "function"
    },
    {
      "inputs": [],
      "name": "GAME_CONTROL",
      "outputs": [
        {
          "internalType": "bytes32",
          "name": "",
          "type": "bytes32"
        }
      ],
      "stateMutability": "view",
      "type": "function"
    },
    {
      "inputs": [],
      "name": "PAUSER_ROLE",
      "outputs": [
        {
          "internalType": "bytes32",
          "name": "",
          "type": "bytes32"
        }
      ],
      "stateMutability": "view",
      "type": "function"
    },
    {
      "inputs": [],
      "name": "allianceGamesProof",
      "outputs": [
        {
          "internalType": "contract IAllianceGamesProof",
          "name": "",
          "type": "address"
        }
      ],
      "stateMutability": "view",
      "type": "function"
    },
    {
      "inputs": [
        {
          "components": [
            {
              "internalType": "bytes",
              "name": "eventData",
              "type": "bytes"
            },
            {
              "components": [
                {
                  "internalType": "bytes32",
                  "name": "leaf",
                  "type": "bytes32"
                },
                {
                  "internalType": "uint256",
                  "name": "position",
                  "type": "uint256"
                },
                {
                  "internalType": "bytes32[]",
                  "name": "merkleProofs",
                  "type": "bytes32[]"
                }
              ],
              "internalType": "struct Data.Proof",
              "name": "eventProof",
              "type": "tuple"
            },
            {
              "internalType": "bytes",
              "name": "blockHeader",
              "type": "bytes"
            },
            {
              "internalType": "bytes[]",
              "name": "signatures",
              "type": "bytes[]"
            },
            {
              "internalType": "address[]",
              "name": "signers",
              "type": "address[]"
            },
            {
              "components": [
                {
                  "internalType": "bytes",
                  "name": "leaf",
                  "type": "bytes"
                },
                {
                  "internalType": "bytes32",
                  "name": "hashedLeaf",
                  "type": "bytes32"
                },
                {
                  "internalType": "uint256",
                  "name": "position",
                  "type": "uint256"
                },
                {
                  "internalType": "bytes32",
                  "name": "extraRoot",
                  "type": "bytes32"
                },
                {
                  "internalType": "bytes32[]",
                  "name": "extraMerkleProofs",
                  "type": "bytes32[]"
                }
              ],
              "internalType": "struct Data.ExtraProofData",
              "name": "extraProof",
              "type": "tuple"
            },
            {
              "internalType": "bytes",
              "name": "encodedData",
              "type": "bytes"
            }
          ],
          "internalType": "struct AllianceGamesTypes.ProofData[]",
          "name": "claims",
          "type": "tuple[]"
        }
      ],
      "name": "batchClaim",
      "outputs": [],
      "stateMutability": "nonpayable",
      "type": "function"
    },
    {
      "inputs": [
        {
          "internalType": "bytes32[]",
          "name": "eventHashes",
          "type": "bytes32[]"
        },
        {
          "internalType": "address",
          "name": "claimer",
          "type": "address"
        }
      ],
      "name": "getClaimStatus",
      "outputs": [
        {
          "internalType": "bool[]",
          "name": "",
          "type": "bool[]"
        }
      ],
      "stateMutability": "view",
      "type": "function"
    },
    {
      "inputs": [
        {
          "internalType": "address",
          "name": "pubkey",
          "type": "address"
        }
      ],
      "name": "getPoints",
      "outputs": [
        {
          "internalType": "uint256",
          "name": "",
          "type": "uint256"
        }
      ],
      "stateMutability": "view",
      "type": "function"
    },
    {
      "inputs": [
        {
          "internalType": "bytes32",
          "name": "role",
          "type": "bytes32"
        }
      ],
      "name": "getRoleAdmin",
      "outputs": [
        {
          "internalType": "bytes32",
          "name": "",
          "type": "bytes32"
        }
      ],
      "stateMutability": "view",
      "type": "function"
    },
    {
      "inputs": [
        {
          "internalType": "bytes32",
          "name": "role",
          "type": "bytes32"
        },
        {
          "internalType": "address",
          "name": "account",
          "type": "address"
        }
      ],
      "name": "grantRole",
      "outputs": [],
      "stateMutability": "nonpayable",
      "type": "function"
    },
    {
      "inputs": [
        {
          "internalType": "bytes32",
          "name": "role",
          "type": "bytes32"
        },
        {
          "internalType": "address",
          "name": "account",
          "type": "address"
        }
      ],
      "name": "hasRole",
      "outputs": [
        {
          "internalType": "bool",
          "name": "",
          "type": "bool"
        }
      ],
      "stateMutability": "view",
      "type": "function"
    },
    {
      "inputs": [
        {
          "internalType": "contract IAllianceGamesProof",
          "name": "_allianceGamesProof",
          "type": "address"
        },
        {
          "internalType": "address",
          "name": "_defaultAdmin",
          "type": "address"
        }
      ],
      "name": "initialize",
      "outputs": [],
      "stateMutability": "nonpayable",
      "type": "function"
    },
    {
      "inputs": [],
      "name": "pause",
      "outputs": [],
      "stateMutability": "nonpayable",
      "type": "function"
    },
    {
      "inputs": [],
      "name": "paused",
      "outputs": [
        {
          "internalType": "bool",
          "name": "",
          "type": "bool"
        }
      ],
      "stateMutability": "view",
      "type": "function"
    },
    {
      "inputs": [
        {
          "internalType": "bytes32",
          "name": "role",
          "type": "bytes32"
        },
        {
          "internalType": "address",
          "name": "callerConfirmation",
          "type": "address"
        }
      ],
      "name": "renounceRole",
      "outputs": [],
      "stateMutability": "nonpayable",
      "type": "function"
    },
    {
      "inputs": [
        {
          "internalType": "bytes32",
          "name": "role",
          "type": "bytes32"
        },
        {
          "internalType": "address",
          "name": "account",
          "type": "address"
        }
      ],
      "name": "revokeRole",
      "outputs": [],
      "stateMutability": "nonpayable",
      "type": "function"
    },
    {
      "inputs": [
        {
          "internalType": "bytes4",
          "name": "interfaceId",
          "type": "bytes4"
        }
      ],
      "name": "supportsInterface",
      "outputs": [
        {
          "internalType": "bool",
          "name": "",
          "type": "bool"
        }
      ],
      "stateMutability": "view",
      "type": "function"
    },
    {
      "inputs": [],
      "name": "unpause",
      "outputs": [],
      "stateMutability": "nonpayable",
      "type": "function"
    }
  ],
  "bytecode": "0x6080604052348015600f57600080fd5b50612c558061001f6000396000f3fe608060405234801561001057600080fd5b506004361061010b5760003560e01c80635c975abb116100a2578063a217fddf11610071578063a217fddf14610290578063adc24775146102ae578063d547741f146102cc578063e63ab1e9146102e8578063ee204abb146103065761010b565b80635c975abb146102085780638456cb59146102265780638af3a3011461023057806391d14854146102605761010b565b80632f2ff15d116100de5780632f2ff15d146101aa57806336568abe146101c65780633f4ba83a146101e2578063485cc955146101ec5761010b565b806301ffc9a714610110578063183a9d5f146101405780631c0617241461015c578063248a9ca31461017a575b600080fd5b61012a6004803603810190610125919061152c565b610336565b6040516101379190611574565b60405180910390f35b61015a60048036038101906101559190611db2565b6103b0565b005b61016461068f565b6040516101719190611e5a565b60405180910390f35b610194600480360381019061018f9190611e75565b6106b3565b6040516101a19190611eb1565b60405180910390f35b6101c460048036038101906101bf9190611ecc565b6106e1565b005b6101e060048036038101906101db9190611ecc565b610703565b005b6101ea61077e565b005b61020660048036038101906102019190611f4a565b6107b3565b005b610210610a65565b60405161021d9190611574565b60405180910390f35b61022e610a8a565b005b61024a60048036038101906102459190611f8a565b610abf565b60405161025791906120a4565b60405180910390f35b61027a60048036038101906102759190611ecc565b610c67565b6040516102879190611574565b60405180910390f35b610298610ce0565b6040516102a59190611eb1565b60405180910390f35b6102b6610ce7565b6040516102c39190611eb1565b60405180910390f35b6102e660048036038101906102e19190611ecc565b610d0b565b005b6102f0610d2d565b6040516102fd9190611eb1565b60405180910390f35b610320600480360381019061031b91906120c6565b610d51565b60405161032d9190612102565b60405180910390f35b60007f7965db0b000000000000000000000000000000000000000000000000000000007bffffffffffffffffffffffffffffffffffffffffffffffffffffffff1916827bffffffffffffffffffffffffffffffffffffffffffffffffffffffff191614806103a957506103a882610d9a565b5b9050919050565b60005b815181101561068b5760008282815181106103d1576103d061211d565b5b602002602001015190506103ed81602001516000015133610e04565b60008054906101000a900473ffffffffffffffffffffffffffffffffffffffff1673ffffffffffffffffffffffffffffffffffffffff166349d80501826040518263ffffffff1660e01b815260040161044691906125ab565b602060405180830381865afa158015610463573d6000803e3d6000fd5b505050506040513d601f19601f8201168201806040525081019061048791906125f9565b6104c6576040517f08c379a00000000000000000000000000000000000000000000000000000000081526004016104bd90612683565b60405180910390fd5b60008160c001518060200190518101906104e0919061294c565b90506000805b82518110156105e4573373ffffffffffffffffffffffffffffffffffffffff168382815181106105195761051861211d565b5b60200260200101516000015173ffffffffffffffffffffffffffffffffffffffff16036105d7578281815181106105535761055261211d565b5b602002602001015160600151600260008584815181106105765761057561211d565b5b60200260200101516000015173ffffffffffffffffffffffffffffffffffffffff1673ffffffffffffffffffffffffffffffffffffffff16815260200190815260200160002060008282546105cb91906129c4565b92505081905550600191505b80806001019150506104e6565b5080610625576040517f08c379a000000000000000000000000000000000000000000000000000000000815260040161061c90612a44565b60405180910390fd5b3373ffffffffffffffffffffffffffffffffffffffff167fb28d276399f08f8991810bacda244e0bee8ef88ac7440413f0d9a29283a027cd8460200151600001516040516106739190611eb1565b60405180910390a250505080806001019150506103b3565b5050565b60008054906101000a900473ffffffffffffffffffffffffffffffffffffffff1681565b6000806106be610f68565b905080600001600084815260200190815260200160002060010154915050919050565b6106ea826106b3565b6106f381610f90565b6106fd8383610fa4565b50505050565b61070b6110a5565b73ffffffffffffffffffffffffffffffffffffffff168173ffffffffffffffffffffffffffffffffffffffff161461076f576040517f6697b23200000000000000000000000000000000000000000000000000000000815260040160405180910390fd5b61077982826110ad565b505050565b7f65d7a28e3265b37a6474929f336521b332c1681b933f6cb9f3376673440d862a6107a881610f90565b6107b06111af565b50565b60006107bd611221565b905060008160000160089054906101000a900460ff1615905060008260000160009054906101000a900467ffffffffffffffff1690506000808267ffffffffffffffff1614801561080b5750825b9050600060018367ffffffffffffffff16148015610840575060003073ffffffffffffffffffffffffffffffffffffffff163b145b90508115801561084e575080155b15610885576040517ff92ee8a900000000000000000000000000000000000000000000000000000000815260040160405180910390fd5b60018560000160006101000a81548167ffffffffffffffff021916908367ffffffffffffffff16021790555083156108d55760018560000160086101000a81548160ff0219169083151502179055505b600073ffffffffffffffffffffffffffffffffffffffff168773ffffffffffffffffffffffffffffffffffffffff1603610944576040517f08c379a000000000000000000000000000000000000000000000000000000000815260040161093b90612ad6565b60405180910390fd5b61094c611249565b610954611253565b61095c611265565b6109696000801b87610fa4565b506109947f52c6173eca90eb88e8418a46ffb14c4cc3f3d5f027d258af306f3361d6a6a0b687610fa4565b506109bf7f65d7a28e3265b37a6474929f336521b332c1681b933f6cb9f3376673440d862a87610fa4565b50866000806101000a81548173ffffffffffffffffffffffffffffffffffffffff021916908373ffffffffffffffffffffffffffffffffffffffff1602179055508315610a5c5760008560000160086101000a81548160ff0219169083151502179055507fc7f505b2f371ae2175ee4913f4499e1f2633a7b5936321eed1cdaeb6115181d26001604051610a539190612b45565b60405180910390a15b50505050505050565b600080610a70611277565b90508060000160009054906101000a900460ff1691505090565b7f65d7a28e3265b37a6474929f336521b332c1681b933f6cb9f3376673440d862a610ab481610f90565b610abc61129f565b50565b60606000835167ffffffffffffffff811115610ade57610add6115a5565b5b604051908082528060200260200182016040528015610b0c5781602001602082028036833780820191505090505b50905060005b8451811015610c5c576000828281518110610b3057610b2f61211d565b5b60200260200101901515908115158152505060005b60016000878481518110610b5c57610b5b61211d565b5b6020026020010151815260200190815260200160002080549050811015610c4e578473ffffffffffffffffffffffffffffffffffffffff1660016000888581518110610bab57610baa61211d565b5b602002602001015181526020019081526020016000208281548110610bd357610bd261211d565b5b9060005260206000200160009054906101000a900473ffffffffffffffffffffffffffffffffffffffff1673ffffffffffffffffffffffffffffffffffffffff1603610c41576001838381518110610c2e57610c2d61211d565b5b6020026020010190151590811515815250505b8080600101915050610b45565b508080600101915050610b12565b508091505092915050565b600080610c72610f68565b905080600001600085815260200190815260200160002060000160008473ffffffffffffffffffffffffffffffffffffffff1673ffffffffffffffffffffffffffffffffffffffff16815260200190815260200160002060009054906101000a900460ff1691505092915050565b6000801b81565b7f52c6173eca90eb88e8418a46ffb14c4cc3f3d5f027d258af306f3361d6a6a0b681565b610d14826106b3565b610d1d81610f90565b610d2783836110ad565b50505050565b7f65d7a28e3265b37a6474929f336521b332c1681b933f6cb9f3376673440d862a81565b6000600260008373ffffffffffffffffffffffffffffffffffffffff1673ffffffffffffffffffffffffffffffffffffffff168152602001908152602001600020549050919050565b60007f01ffc9a7000000000000000000000000000000000000000000000000000000007bffffffffffffffffffffffffffffffffffffffffffffffffffffffff1916827bffffffffffffffffffffffffffffffffffffffffffffffffffffffff1916149050919050565b60005b6001600084815260200190815260200160002080549050811015610eef578173ffffffffffffffffffffffffffffffffffffffff16600160008581526020019081526020016000208281548110610e6157610e6061211d565b5b9060005260206000200160009054906101000a900473ffffffffffffffffffffffffffffffffffffffff1673ffffffffffffffffffffffffffffffffffffffff1603610ee2576040517f08c379a0000000000000000000000000000000000000000000000000000000008152600401610ed990612bac565b60405180910390fd5b8080600101915050610e07565b5060016000838152602001908152602001600020819080600181540180825580915050600190039060005260206000200160009091909190916101000a81548173ffffffffffffffffffffffffffffffffffffffff021916908373ffffffffffffffffffffffffffffffffffffffff1602179055505050565b60007f02dd7bc7dec4dceedda775e58dd541e08a116c6c53815c0bd028192f7b626800905090565b610fa181610f9c6110a5565b611311565b50565b600080610faf610f68565b9050610fbb8484610c67565b61109957600181600001600086815260200190815260200160002060000160008573ffffffffffffffffffffffffffffffffffffffff1673ffffffffffffffffffffffffffffffffffffffff16815260200190815260200160002060006101000a81548160ff0219169083151502179055506110356110a5565b73ffffffffffffffffffffffffffffffffffffffff168373ffffffffffffffffffffffffffffffffffffffff16857f2f8788117e7eff1d82e926ec794901d17c78024a50270940304540a733656f0d60405160405180910390a4600191505061109f565b60009150505b92915050565b600033905090565b6000806110b8610f68565b90506110c48484610c67565b156111a357600081600001600086815260200190815260200160002060000160008573ffffffffffffffffffffffffffffffffffffffff1673ffffffffffffffffffffffffffffffffffffffff16815260200190815260200160002060006101000a81548160ff02191690831515021790555061113f6110a5565b73ffffffffffffffffffffffffffffffffffffffff168373ffffffffffffffffffffffffffffffffffffffff16857ff6391f5c32d9c69d2a47ea670b442974b53935d1edc7fd64eb21e047a839171b60405160405180910390a460019150506111a9565b60009150505b92915050565b6111b7611362565b60006111c1611277565b905060008160000160006101000a81548160ff0219169083151502179055507f5db9ee0a495bf2e6ff9c91a7834c1ba4fdd244a5e8aa4e537bd38aeae4b073aa6112096110a5565b6040516112169190612bdb565b60405180910390a150565b60007ff0c57e16840df040f15088dc2f81fe391c3923bec73e23a9662efc9c229c6a00905090565b6112516113a2565b565b61125b6113a2565b6112636113e2565b565b61126d6113a2565b611275611416565b565b60007fcd5ed15c6e187e77e9aee88184c21f4f2182ab5827cb3b7e07fbedcd63f03300905090565b6112a7611437565b60006112b1611277565b905060018160000160006101000a81548160ff0219169083151502179055507f62e78cea01bee320cd4e420270b5ea74000d11b0c9f74754ebdbfc544b05a2586112f96110a5565b6040516113069190612bdb565b60405180910390a150565b61131b8282610c67565b61135e5780826040517fe2517d3f000000000000000000000000000000000000000000000000000000008152600401611355929190612bf6565b60405180910390fd5b5050565b61136a610a65565b6113a0576040517f8dfc202b00000000000000000000000000000000000000000000000000000000815260040160405180910390fd5b565b6113aa611478565b6113e0576040517fd7e6bcf800000000000000000000000000000000000000000000000000000000815260040160405180910390fd5b565b6113ea6113a2565b60006113f4611277565b905060008160000160006101000a81548160ff02191690831515021790555050565b61141e6113a2565b6000611428611498565b90506001816000018190555050565b61143f610a65565b15611476576040517fd93c066500000000000000000000000000000000000000000000000000000000815260040160405180910390fd5b565b6000611482611221565b60000160089054906101000a900460ff16905090565b60007f9b779b17422d0df92223018b32b4d1fa46e071723d6817e2486d003becc55f00905090565b6000604051905090565b600080fd5b600080fd5b60007fffffffff0000000000000000000000000000000000000000000000000000000082169050919050565b611509816114d4565b811461151457600080fd5b50565b60008135905061152681611500565b92915050565b600060208284031215611542576115416114ca565b5b600061155084828501611517565b91505092915050565b60008115159050919050565b61156e81611559565b82525050565b60006020820190506115896000830184611565565b92915050565b600080fd5b6000601f19601f8301169050919050565b7f4e487b7100000000000000000000000000000000000000000000000000000000600052604160045260246000fd5b6115dd82611594565b810181811067ffffffffffffffff821117156115fc576115fb6115a5565b5b80604052505050565b600061160f6114c0565b905061161b82826115d4565b919050565b600067ffffffffffffffff82111561163b5761163a6115a5565b5b602082029050602081019050919050565b600080fd5b600080fd5b600080fd5b600080fd5b600067ffffffffffffffff82111561167b5761167a6115a5565b5b61168482611594565b9050602081019050919050565b82818337600083830152505050565b60006116b36116ae84611660565b611605565b9050828152602081018484840111156116cf576116ce61165b565b5b6116da848285611691565b509392505050565b600082601f8301126116f7576116f661158f565b5b81356117078482602086016116a0565b91505092915050565b6000819050919050565b61172381611710565b811461172e57600080fd5b50565b6000813590506117408161171a565b92915050565b6000819050919050565b61175981611746565b811461176457600080fd5b50565b60008135905061177681611750565b92915050565b600067ffffffffffffffff821115611797576117966115a5565b5b602082029050602081019050919050565b60006117bb6117b68461177c565b611605565b905080838252602082019050602084028301858111156117de576117dd61164c565b5b835b8181101561180757806117f38882611731565b8452602084019350506020810190506117e0565b5050509392505050565b600082601f8301126118265761182561158f565b5b81356118368482602086016117a8565b91505092915050565b60006060828403121561185557611854611651565b5b61185f6060611605565b9050600061186f84828501611731565b600083015250602061188384828501611767565b602083015250604082013567ffffffffffffffff8111156118a7576118a6611656565b5b6118b384828501611811565b60408301525092915050565b600067ffffffffffffffff8211156118da576118d96115a5565b5b602082029050602081019050919050565b60006118fe6118f9846118bf565b611605565b905080838252602082019050602084028301858111156119215761192061164c565b5b835b8181101561196857803567ffffffffffffffff8111156119465761194561158f565b5b80860161195389826116e2565b85526020850194505050602081019050611923565b5050509392505050565b600082601f8301126119875761198661158f565b5b81356119978482602086016118eb565b91505092915050565b600067ffffffffffffffff8211156119bb576119ba6115a5565b5b602082029050602081019050919050565b600073ffffffffffffffffffffffffffffffffffffffff82169050919050565b60006119f7826119cc565b9050919050565b611a07816119ec565b8114611a1257600080fd5b50565b600081359050611a24816119fe565b92915050565b6000611a3d611a38846119a0565b611605565b90508083825260208201905060208402830185811115611a6057611a5f61164c565b5b835b81811015611a895780611a758882611a15565b845260208401935050602081019050611a62565b5050509392505050565b600082601f830112611aa857611aa761158f565b5b8135611ab8848260208601611a2a565b91505092915050565b600060a08284031215611ad757611ad6611651565b5b611ae160a0611605565b9050600082013567ffffffffffffffff811115611b0157611b00611656565b5b611b0d848285016116e2565b6000830152506020611b2184828501611731565b6020830152506040611b3584828501611767565b6040830152506060611b4984828501611731565b606083015250608082013567ffffffffffffffff811115611b6d57611b6c611656565b5b611b7984828501611811565b60808301525092915050565b600060e08284031215611b9b57611b9a611651565b5b611ba560e0611605565b9050600082013567ffffffffffffffff811115611bc557611bc4611656565b5b611bd1848285016116e2565b600083015250602082013567ffffffffffffffff811115611bf557611bf4611656565b5b611c018482850161183f565b602083015250604082013567ffffffffffffffff811115611c2557611c24611656565b5b611c31848285016116e2565b604083015250606082013567ffffffffffffffff811115611c5557611c54611656565b5b611c6184828501611972565b606083015250608082013567ffffffffffffffff811115611c8557611c84611656565b5b611c9184828501611a93565b60808301525060a082013567ffffffffffffffff811115611cb557611cb4611656565b5b611cc184828501611ac1565b60a08301525060c082013567ffffffffffffffff811115611ce557611ce4611656565b5b611cf1848285016116e2565b60c08301525092915050565b6000611d10611d0b84611620565b611605565b90508083825260208201905060208402830185811115611d3357611d3261164c565b5b835b81811015611d7a57803567ffffffffffffffff811115611d5857611d5761158f565b5b808601611d658982611b85565b85526020850194505050602081019050611d35565b5050509392505050565b600082601f830112611d9957611d9861158f565b5b8135611da9848260208601611cfd565b91505092915050565b600060208284031215611dc857611dc76114ca565b5b600082013567ffffffffffffffff811115611de657611de56114cf565b5b611df284828501611d84565b91505092915050565b6000819050919050565b6000611e20611e1b611e16846119cc565b611dfb565b6119cc565b9050919050565b6000611e3282611e05565b9050919050565b6000611e4482611e27565b9050919050565b611e5481611e39565b82525050565b6000602082019050611e6f6000830184611e4b565b92915050565b600060208284031215611e8b57611e8a6114ca565b5b6000611e9984828501611731565b91505092915050565b611eab81611710565b82525050565b6000602082019050611ec66000830184611ea2565b92915050565b60008060408385031215611ee357611ee26114ca565b5b6000611ef185828601611731565b9250506020611f0285828601611a15565b9150509250929050565b6000611f17826119ec565b9050919050565b611f2781611f0c565b8114611f3257600080fd5b50565b600081359050611f4481611f1e565b92915050565b60008060408385031215611f6157611f606114ca565b5b6000611f6f85828601611f35565b9250506020611f8085828601611a15565b9150509250929050565b60008060408385031215611fa157611fa06114ca565b5b600083013567ffffffffffffffff811115611fbf57611fbe6114cf565b5b611fcb85828601611811565b9250506020611fdc85828601611a15565b9150509250929050565b600081519050919050565b600082825260208201905092915050565b6000819050602082019050919050565b61201b81611559565b82525050565b600061202d8383612012565b60208301905092915050565b6000602082019050919050565b600061205182611fe6565b61205b8185611ff1565b935061206683612002565b8060005b8381101561209757815161207e8882612021565b975061208983612039565b92505060018101905061206a565b5085935050505092915050565b600060208201905081810360008301526120be8184612046565b905092915050565b6000602082840312156120dc576120db6114ca565b5b60006120ea84828501611a15565b91505092915050565b6120fc81611746565b82525050565b600060208201905061211760008301846120f3565b92915050565b7f4e487b7100000000000000000000000000000000000000000000000000000000600052603260045260246000fd5b600081519050919050565b600082825260208201905092915050565b60005b8381101561218657808201518184015260208101905061216b565b60008484015250505050565b600061219d8261214c565b6121a78185612157565b93506121b7818560208601612168565b6121c081611594565b840191505092915050565b6121d481611710565b82525050565b6121e381611746565b82525050565b600081519050919050565b600082825260208201905092915050565b6000819050602082019050919050565b600061222183836121cb565b60208301905092915050565b6000602082019050919050565b6000612245826121e9565b61224f81856121f4565b935061225a83612205565b8060005b8381101561228b5781516122728882612215565b975061227d8361222d565b92505060018101905061225e565b5085935050505092915050565b60006060830160008301516122b060008601826121cb565b5060208301516122c360208601826121da565b50604083015184820360408601526122db828261223a565b9150508091505092915050565b600081519050919050565b600082825260208201905092915050565b6000819050602082019050919050565b60006123208383612192565b905092915050565b6000602082019050919050565b6000612340826122e8565b61234a81856122f3565b93508360208202850161235c85612304565b8060005b8581101561239857848403895281516123798582612314565b945061238483612328565b925060208a01995050600181019050612360565b50829750879550505050505092915050565b600081519050919050565b600082825260208201905092915050565b6000819050602082019050919050565b6123df816119ec565b82525050565b60006123f183836123d6565b60208301905092915050565b6000602082019050919050565b6000612415826123aa565b61241f81856123b5565b935061242a836123c6565b8060005b8381101561245b57815161244288826123e5565b975061244d836123fd565b92505060018101905061242e565b5085935050505092915050565b600060a08301600083015184820360008601526124858282612192565b915050602083015161249a60208601826121cb565b5060408301516124ad60408601826121da565b5060608301516124c060608601826121cb565b50608083015184820360808601526124d8828261223a565b9150508091505092915050565b600060e08301600083015184820360008601526125028282612192565b9150506020830151848203602086015261251c8282612298565b915050604083015184820360408601526125368282612192565b915050606083015184820360608601526125508282612335565b9150506080830151848203608086015261256a828261240a565b91505060a083015184820360a08601526125848282612468565b91505060c083015184820360c086015261259e8282612192565b9150508091505092915050565b600060208201905081810360008301526125c581846124e5565b905092915050565b6125d681611559565b81146125e157600080fd5b50565b6000815190506125f3816125cd565b92915050565b60006020828403121561260f5761260e6114ca565b5b600061261d848285016125e4565b91505092915050565b600082825260208201905092915050565b7f546963546163546f653a20696e76616c69642070726f6f660000000000000000600082015250565b600061266d601883612626565b915061267882612637565b602082019050919050565b6000602082019050818103600083015261269c81612660565b9050919050565b600067ffffffffffffffff8211156126be576126bd6115a5565b5b602082029050602081019050919050565b6000815190506126de816119fe565b92915050565b600067ffffffffffffffff8211156126ff576126fe6115a5565b5b61270882611594565b9050602081019050919050565b6000612728612723846126e4565b611605565b9050828152602081018484840111156127445761274361165b565b5b61274f848285612168565b509392505050565b600082601f83011261276c5761276b61158f565b5b815161277c848260208601612715565b91505092915050565b60008151905061279481611750565b92915050565b600060ff82169050919050565b6127b08161279a565b81146127bb57600080fd5b50565b6000815190506127cd816127a7565b92915050565b600060a082840312156127e9576127e8611651565b5b6127f360a0611605565b90506000612803848285016126cf565b600083015250602082015167ffffffffffffffff81111561282757612826611656565b5b61283384828501612757565b602083015250604082015167ffffffffffffffff81111561285757612856611656565b5b61286384828501612757565b604083015250606061287784828501612785565b606083015250608061288b848285016127be565b60808301525092915050565b60006128aa6128a5846126a3565b611605565b905080838252602082019050602084028301858111156128cd576128cc61164c565b5b835b8181101561291457805167ffffffffffffffff8111156128f2576128f161158f565b5b8086016128ff89826127d3565b855260208501945050506020810190506128cf565b5050509392505050565b600082601f8301126129335761293261158f565b5b8151612943848260208601612897565b91505092915050565b600060208284031215612962576129616114ca565b5b600082015167ffffffffffffffff8111156129805761297f6114cf565b5b61298c8482850161291e565b91505092915050565b7f4e487b7100000000000000000000000000000000000000000000000000000000600052601160045260246000fd5b60006129cf82611746565b91506129da83611746565b92508282019050808211156129f2576129f1612995565b5b92915050565b7f546963546163546f653a20696e76616c696420636c61696d6572000000000000600082015250565b6000612a2e601a83612626565b9150612a39826129f8565b602082019050919050565b60006020820190508181036000830152612a5d81612a21565b9050919050565b7f546963546163546f653a20616c6c69616e636547616d657350726f6f6620616460008201527f647265737320697320696e76616c696400000000000000000000000000000000602082015250565b6000612ac0603083612626565b9150612acb82612a64565b604082019050919050565b60006020820190508181036000830152612aef81612ab3565b9050919050565b6000819050919050565b600067ffffffffffffffff82169050919050565b6000612b2f612b2a612b2584612af6565b611dfb565b612b00565b9050919050565b612b3f81612b14565b82525050565b6000602082019050612b5a6000830184612b36565b92915050565b7f4164647265737320616c72656164792061646465640000000000000000000000600082015250565b6000612b96601583612626565b9150612ba182612b60565b602082019050919050565b60006020820190508181036000830152612bc581612b89565b9050919050565b612bd5816119ec565b82525050565b6000602082019050612bf06000830184612bcc565b92915050565b6000604082019050612c0b6000830185612bcc565b612c186020830184611ea2565b939250505056fea2646970667358221220fcbbff0747f3bf9d8ebc79fa6438a3db5e9bafd3527da3fc7022135eddbefaf864736f6c634300081c0033",
  "linkReferences": {},
  "deployedLinkReferences": {}
}